Compucolor Virtual Floppy Disk Image
Label Hangman (8K) 990003
Label 1. Hangman.  Classic word game.  Improves vocabulary and spelling
Label    skills.  If you miss, the Compucolor II will hang you right on
Label    the screen.
Label 2. Math Tutor.  Improves your mathematics skills.  Presents
Label    problems in addition, subtraction, multiplication, and
Label    division.  Five levels of difficulty.
Label 3. Two To Ten.  Compucolor II deals the cards.  Try to reach a
Label    sum total including the "mystery number" hinted at by the
Label    computer.
Track 0
0000000000000000000000000000000000000000000000000000000000000000
0000000000000000000000000000000000000000000000000000000000000000
0000000000000000000000000000000000000000000000000000000000000000
0000000000000000000000000000000000000000000000000000000000000000
0000000000000000000000000000000000000000000000000000000000000000
0000000000000000000000000000000000000000000000000000000000000000
0000000000000000000000000000000000000000000000000000000000000000
0000000000000000000000000000000000000000000000000000000000000000
0000000000000000000000000000000000000000000000000000000000000000
0000000000000000000000000000000000000000000000000000000000000000
0000000000000000000000000000000000000000000000000000000000000000
0000000000000000000000000000000000000000000000000000000000000000
0000000000000000000000000000000000000000000000000000000000000000
0000000000000000000000000000000000000000000000000000000000000000
0000000000000000000000000000000000000000000000000000000000000000
0000000000000000000000000000000000000000000000000000000000000000
0000000000000000000000000000000000000000000000000000000000000000
0000000000000000000000000000000000000000000000000000000000000000
0000000000000000000000000000000000000000000000000000000000000000
0000000000000000000000000000000000000000000000000000000000000000
0000000000000000000000000000000000000000000000000000000000000000
0000000000000000000000000000000000000000000000000000000000000000
0000000000000000000000000000000000000000000000000000000000000000
0000000000000000000000000000000000000000000000000000000000000000
0000000000000000000000000000000000000000000000000000000000000000
0000000000000000000000000000000000000000000000000000000000000000
0000000000000000000000000000000000000000000000000000000000000000
0000000000000000000000000000000000000000000000000000000000000000
0000000000000000000000000000000000000000000000000000000000000000
0000000000000000000000000000000000000000000000000000000000000000
0000000000000000000000000000000000000000000000000000000000000000
0000000000000000000000000000000000000000000000000000000000000000
0000000000000000000000000000000000000000000000000000000000000000
0000000000000000000000000000000000000000000000000000000000000000
0000000000000000000000000000000000000000000000000000000000000000
0000000000000000000000000000000000000000000000000000000000000000
0000000000000000000000000000000000000000000000000000000000000000
0000000000000000000000000000000000000000000000000000000000000000
0000000000000000000000000000000000000000000000000000000000000000
0000000000000000000000000000000000000000000000000000000000000000
0000000000000000000000000000000000000000000000000000000000000000
0000000000000000000000000000000000000000000000000000000000000000
0000000000000000000000000000000000000000000000000000000000000000
0000000000000000000000000000000000000000000000000000000000000000
0000000000000000000000000000000000000000000000000000000000000000
0000000000000000000000000000000000000000000000000000000000000000
0000000000000000000000000000000000000000000000000000000000000000
0000000000000000000000000000000000000000000000000000000000000000
0000000000000000000000000000000000000000000000000000000000000000
0000000000000000000000000000000000000000000000000000000000000000
0000000000000000000000000000000000000000000000000000000000000000
0000000000000000000000000000000000000000000000000000000000000000
0000000000000000000000000000000000000000000000000000000000000000
0000000000000000000000000000000000000000000000000000000000000000
0000000000000000000000000000000000000000000000000000000000000000
0000000000000000000000000000000000000000000000000000000000000000
0000000000000000000000000000000000000000000000000000000000000000
0000000000000000000000000000000000000000000000000000000000000000
0000000000000000000000000000000000000000000000000000000000000000
0000000000000000000000000000000000000000000000000000000000000000
Track 1
FFFFFFFFFFFFFFFFFFFFFFFFFFFF5F55011DA4135DFFFDF7FED30AA4AC9EAA0A
A4AB82728A2A9044DA0920A106C3AB20CB44324AAAA79A02892AA48A02A9A9A2
9CAA0A24A18A62EAA9AB440208A9C1B82BC83280CE1A0C28832C132926905A02
09A9A09C3AAAA9A09C0209A5AB9E928A28908E0AAAA9A252120920C90623CD20
CB449209A496406A2A28AA902AAAA9A0A84A6AA8A940A2AA2AAA9E920A24948A
22AAAAA182A22AA9A79C0A8AA994440288B6C1103AC832916602C9A6B101FEFF
FFFFFFFFFFFFFFFFFFFFFFFFBFAA021A482FF8FEFB0FFED3AABCF2CA2BAFBCF2
CA2BAFBCF2CA2BAFBCF2CA2BAFBCF2CA2BAFBCF2CA2BAFBCF2CA2BAFBCF2CA2B
AFBCF2CA2BAFBCF2CA2BAFBCF2CA2BAFBCF2CA2BAFBCF2CA2BAFBCF2CA2BAFBC
F2CA2BAFBCF2CA2BAFBCF2CA2BAFBCF2CA2BAFBCF2CA2BAFBCF2CA2BAFBCF2CA
2BAFBCF2CA2BAFBCF2CA2BAFBCF2CA2BAFBCF2CA2BAFBCF2CA2BAFBCF2CA2BAF
BCF2CA2BAFBCF2CA2BAFBCF2CA2BAFBCF2CA2BAFBCF2CA2B4FA1DB01FEFFFFFF
FFFFFFFFFFFFFFFFFFFF7F550584D0729BFDF7FFFDA7554B205175D5532051F5
14485415E51448280D15945444817454504D1595924800E936185B075906D07D
83417710612245D454514E5505D254453155D4505425F5945320A14455565015
05925355352554515281149453448184545254812455515455259553202D5554
562981A4934422ED0415400D114613429C4185984C33C104134B32D104134C2C
C954134C3001E41161982124994C38B114534C3A2126D35ED103FCFFFFFFFFFF
FFFFFFFFFFFFFFFFFFAA0A8820852EFAEFFFFDA75579E595575E79E595575E79
E595575E79E595575E79E595575E79E595575E79E595575E79E595575E79E595
575E79E595575E79E595575E79E595575E79E595575E79E595575E79E595575E
79E595575E79E595575E79E595575E79E595575E79E595575E79E595575E79E5
95575E79E595575E79E595575E79E595575E79E595575E79E595575E79E59557
5E79E595575E79E595575E79E595575E79E595579E42B703FCFFFFFFFFFFFFFF
FFFFFFFFFFFFFFAA0A28A1ED74FBEFFFFB4F2B98608209209808E30F21CA4442
2A28A78E6ACAA99D621249A7C400128A30B012A24CA4A682A20A29AAAADA2926
91744A0CA0A908232E21CA44A2EAAAA7628269A79844D2293180000208208000
0208208000020820800002082080000208208000020820800002082080000208
2080000208208000020820800002082080000208208000020820800002082080
00020820800002082080000208208000020820814A0618F8FFFFFFFFFFFFFFFF
FFFFFFFFFFFFFFFFFFFFFFFFFFFFFFFFFFFFFFFFFFFFFFFFAB2A2080949AECBF
FFE03FAD002A2828A48272EAA8A682720A2490405A0AA08200EA082080000288
A6819A2ACAA9AA400249A8A0A60AC8208008026827CD04AB8A309A06422A28A9
88020924A692122A208500DA0820C0B003082280101AA8A8A0A6CA0A2490984A
4AA8804A0268238000C30E208800426820A48272EAA8A69C122AA8A902020A20
9600A24933C19CC2CCAA819072EA28A692124AA8A0A60A882D8042020822CD04
534D3284C8031C80FFFFFFFFFFFFFFFFFFFFFFFFFFFF5F550115A4914DFFFD7F
FF69555E79E595575E79E595575E79E595575E79E595575E79E595575E79E595
575E79E595575E79E595575E79E595575E79E595575E79E595575E79E595575E
79E595575E79E595575E79E595575E79E595575E79E595575E79E595575E79E5
95575E79E595575E79E595575E79E595575E79E595575E79E595575E79E59557
5E79E595575E79E595575E79E595575E79E595575E79E595575E79E595575E79
E595A7D0ED00FFFFFFFFFFFFFFFFFFFFFFFFFFFFBFAA020A482BD9FEFB0FFF69
155041035DF5945444810412534909155063006D041060D801041140080DD454
5054214555554205355540A801E41140566926185C9101341055573D15134C20
0915D454011907904C00FDA59960996D06504000010410400001041040000184
1F409801041840000104104000010410400001041040000104904501E9051060
0001041040000104104000010410400001041040480584144080010410400001
7494FA80FFFFFFFFFFFFFFFFFFFFFFFFFFFF5F550119A45255FFFD7FFF69859B
60E80D24994C39B114134D2CD9C4924C2CC524134B32DDC4524C31B134134B38
B1041340ED09C61441968934D150203D0552532041055255200D05D253203105
D2532049051248200D05D2532049051254203D0592542005051255202505D253
203925914800CD27186C045906D0498351549065225195155445819494532051
855451203955555342152515484F190512554815051254523D7594544135E5D0
E900FFFFFFFFFFFFFFFFFFFFFFFFFFFF5F550109A45674FFFD7FFF69555E79E5
95575E79E595575E79E595575E79E595575E79E595575E79E595575E79E59557
5E79E595575E79E595575E79E595575E79E595575E79E595575E79E595575E79
E595575E79E595575E79E595575E79E595575E79E595575E79E595575E79E595
575E79E595575E79E595575E79E595575E79E595575E79E595575E79E595575E
79E595575E79E595575E79E595575E79E595575E79E595575E79E595A7D0ED00
Track 2
FFFFFFFFFFFFFFFFFFFFFFFFFFFF579540013D14DE7FFFBDFFB40A0AAAA0A842
AA28AA921A0A24904002092490400A0A2AA8A47A0AABA49A0A8AAAA298CA0A24
90400A8A2AA4982A8AAAA4869A0A24904002092490400A8A2AAA92A2AA2AA28A
02092490400209249040122AA8A1A82A4AAAA48202092490400209249040122A
28A98E0A2A29A7400209249040020924904012AA28A482B22AA9A7A402092490
400209249040122A29A1984AEAA9A3A40A0A2AA4B20209249040D2AB7480FFFF
FFFFFFFFFFFFFFFFFFFFFFFFAB4A2083FE32E8BFFFEF3FAD90AAAAA9A7A47AAA
AAA94002092490400209249092728AA8A4860A8AAAA240020924904002092490
9272CA28A6AA2ACAA9A18A0209249040020924909272EAA9A1AA622A28AA8A02
092490400209249092924AAAA2982ACAAAA09CA20A24904002092490962A4AAA
A7A62ACAA9A240020924904002092490982A2AA9A9AA92AA2890400209249040
02092490984AEA28A4A8722A29A78E02092490400209249040531AE0FFFFFFFF
FFFFFFFFFFFFFFFFFFFFAA1248A09F04FBEFFFFB4F2BA19E7A6AA9A58A2A0AAA
A2A40209249040020924A1A4AA2AA9A98A020924904002092490400209A4A182
626AA8AA980A8AAAA49E720A2490400209A4A182924AA8AAA42A8AAAA7A40209
2490400209A4A18A62AA28A1A40A8AAAA28802092490400209A4A19272AAA8A6
82020924904002092490400209A4A1982A2A28A982726AA8A240020924904002
09A4A19E62EAA9A9A60A8A29904002092490400209248F0C06F8FFFFFFFFFFFF
FFFFFFFFFFFFFFBFAA043AE8AD93FEFBFFFED38AA9AAB0AA4AAAAC4002092490
40020924904002A9A9A09C2AAA2AAB8A920A249040020924904002A9A9A0A8AA
4AAAA4A8CA0A249040020924904002A9A9A48692EA29A8907ACAA9A240020924
904002A9A9A4A61A0AA9A48AB2EAA9AAA6020924904002A9A9AA9C4A6AA8A4A0
0A8A299040020924904002C9A9A2AAA24AAAA0980209249040020924904002C9
A9AA929A2A28A7862A0A24904002092490400269BABB01FEFFFFFFFFFFFFFFFF
FFFFFFFFFF5F55020DF4D268FFFDF7FED36AA8A79A6AAA2AA7921A2A28AA8A02
092490400269A8A79A828AA9A092728A2A904002092490400269A8A79C72EAA9
A4A69AAAA8AAA402092490400269A8A79C9A2AA9A9A82ACA29AA400209249040
0269A8A79CA24AAAA798622A28A1982A0A2490400269A8A7A482EA29A982A22A
A9A79C0209249040026928A98A22AA28A7A84A2A28A6A602092490400289A8A2
86622A28A982A22AA9A79C0209249040020934F701FEFFFFFFFFFFFFFFFFFFFF
FFFFFF5F550221E41972FFFD7FFF69F51454493995D4534E8104124820810412
482081F494544705E554525A054555524F39051248208104555052519554504C
81041248208104124820810455514355C5545241490512482081041248208104
55515221151454538104124820810412482081045551524DF594534E15C51448
20810412482081045552433995D4504B25E5D4512081041248208104D5535405
45D553208104124820810412482081A4D2CC00FFFFFFFFFFFFFFFFFFFFFFFFFF
FFAF2A8108FA8AA8FFFEBFFFB422AAA8A9862ACA29AA40020924904002092490
40222AA9A9A07A6AAAA098020924904002092490402A6AA8A79C7AAAA9A4860A
8A29904002092490402AAA29A182924AAAA0A69A0A24904002092490402ACA29
AA90AA6AAAA4829AAA29904002092490402ACAAAA098AA2A28AA927ACA299040
02092490402A0AABA286AA8AAAA4AC2A0A24904002092490402A0A2BAA8A726A
AAA49E720A24904002092490408ACE7480FFFFFFFFFFFFFFFFFFFFFFFFFFFF57
9540093996DE7FFFDF7F5A412555514425351455208104124820810412482041
2555525625C5545147150512482081041248204125D553482525545254256555
512081041248204125D5535015C5145345490512482081041248204555555245
5105124820810412482081041248204955D45045256555512081041248208104
1248204955D4504F35D554514E11151455493DE5144820495554524739051248
208104124820810412482085F43DC007FEFFFFFFFFFFFFFFFFFFFFFFFFFFFFFF
FFFFFFFFFFFFFFFFFFFFFFFFFFFFFFFFFFFFBFAA0402E823E0FEFBFFFED30A20
80B0420C2080B042ACBCF2CA2BAFBCF2CA2B2FA8A1862A8AA9A2A40A8AAAA240
02092490400229A8A1867AAA29A882722AABA49C3A0A2490400229A8A1A2AA2A
A8A49CA22A28A7862A0A249040022928A29A4A8A2AAA82726AA8A24002092490
400229A8A38E922A28AB82A2AA2890400209249040022928A6987AEAAAA09C1A
AA28904002092490400229A8A69E72EA2890400209249040020924904002C937
8501FEFFFFFFFFFFFFFFFFFFFFFFFFFFAF2A810A7AAAACFFFE7BFF6965545043
4D95545349315514482081041248208164545054257554554581041248208104
124820816454524E05E5D4504905C514482081041248208164D4535549451552
2081041248208104124820817454514E2555D554208104124820810412482081
7454554149159453541555144820810412482081845450502115945641494514
4820810412482081845451523D55D454208104124820810412482081449ACE00
Track 3
FFFFFFFFFFFFFFFFFFFFFFFFFFFFAB6A2082D8AAEBBFFFEF3FAD862ACA29AA92
82AA28A28A02092490400209249086AA8A29AAAA92AA28904002092490400209
2490884A6A28A49EA2EAA9A6B2020924904002092490887A6AA8A4982A0A2490
400209249040020924908A6A4AA8A0A4922AA8A9A60209249040020924908AC2
2AA8A69272AA2890400209249040020924908ACAAA28A1A47AEA2A9040020924
9040020924908C0ACA29AA829A2A2B904002092490400209249098EB1EE0FFFF
FFFFFFFFFFFFFFFFFFFFFF7F550D94506FD8FDF7DFFB4FABAB82A26A28A44002
0924904002092490400209A4A69EA20AA9A2A4020924904002092490400209A4
AA9CA22A29A640020924904002092490400209A4ABA44A8AAAA2400209249040
02092490400209A4A08E0A2A29A740020924904002092490400209A4AB9EAA8A
29A240020924904002092490400209A4A6923A0A29AA40020924904002092490
40020924A1A47AEA2AA74002092490400209249040020924A27407C0FFFFFFFF
FFFFFFFFFFFFFFFFFFFFFFFFFFFFFFFFFFFFFFFFFFFFFFFFFFFFFFFFFFFFFFFF
BFAA060288A5F8FEFB0FFF6925555150154555525425F5945320810412482081
2455515341F5945353252554524C25455556208134D55041394554504C810412
482081041248208134D550494D35D553524D0512482081041248208134555152
1D5554504E510512482081041248208134555247391514555549551448208104
1248208134D5535021F554534F49551448208104124820813415554F4915D451
458104124820810412482081F452F200FFFFFFFFFFFFFFFFFFFFFFFFFFFFAB6A
A082F8A2EABFFFDE7F5A19F59454452575945320810412482081041248201955
1555554995D45454253514482081041248201D1514535605E554525A15051248
2081041248201D559453454D95D45420810412482081041248201D2555504E11
95D45353150512482081041248201D5555505205E51455451505124820810412
48202195D55454152555524305C5144820810412482025351555483555D55420
8104124820810412482079243EC0FFFFFFFFFFFFFFFFFFFFFFFFFFFFAA1A2820
9EA0FBEFFFFB4FABA9AA32CAA8A4864AAA28A7A802092490400209A4A9AA92EA
A8A29E720A24904002092490400209A4A9B26A0AAAA0A8422A2B904002092490
40020924AA8A1A0A29A7921A2AA9A09C0209249040020924AA8A9A8AAAA49A7A
CAA9AC400209249040020924AAA40ACA28A3921A0A2490400209249040020924
AAB2922A28A79CCA0A24904002092490400209A4AA9C72AAA8A18A9A6AAAA0A4
CA0A2490400209A4EDDA06F8FFFFFFFFFFFFFFFFFFFFFFFFFF5F550319C4D44D
FFFD87FFB4522AA8A3AA0A4A2A904002092490400209249040622AA9A8AA4A8A
289040020924904002092490406A2AA8A382D22A29A78A020924904002092490
40722A28A292920A2490400209249040020924904072AA2AAAA44AAA28A7A802
0924904002092490407A4A28AB8A926AAAA240020924904002092490407A0AAB
AC8E2ACA29904002092490400209249040822A28A5826A2AA8A9400209249040
0209249040428F7080FFFFFFFFFFFFFFFFFFFFFFFFFFFF553590400CCDF6DF7F
EF3FADAC0A4AAAA48A9A0A249040020924904002092490AC4A6AA8A49EAA6A2A
9040020924904002092490AC7A8AA9AA9CA2AAA8A2A4020924904002092490AE
2A2A29A9880209249040020924904002092490B47AEA29A69E3A2A2B90400209
24904002092490822A4AAAA482620A2490400209249040020924908262CAA8A0
98322A289040020924904002092490826A4AA8A48EAAEAA9AAA6020924904002
092490644B1FE0FFFFFFFFFFFFFFFFFFFFFFFFFFFFAA1AE820AE2CFAEFBFF79F
5650054515524F31F5D451598104124820810412485025A59556418104124820
8104124820810412485065755453598104124820810412482081041248515515
145152054555524381041248208104124852151514534D810412482081041248
20810412485305455552521505124820810412482081041248530D9515554815
0512482081041248208104124853455555514C0D851448208104124820810412
48E8C10CF0FFFFFFFFFFFFFFFFFFFFFFFFFFBFAA061A8823C9FEFBEFFDA75550
51551594544955D5144820810412482081045250534D15D4545325E514482081
04124820810452505351855453418104124820810412482081049250411D5514
53208104124820810412482081049250490D95D5504C15051248208104124820
810492504F55155555455105124820810412482081049250553125D453554D05
12482081041248208104D2504131C554524F4155144820810412482081045253
F503FCFFFFFFFFFFFFFFFFFFFFFFFFFFAFAA81106A2DBFFFFE7BFF6935555542
41F554514E05051248208104124820813455564C311594504C15051248208104
124820814455514E552555512081041248208104124820814495544931F5D451
5981041248208104124820815455534225C554524305C5144820810412482081
64D553550D8554515281041248208104124820818455564C3D0515524F395514
4820810412482081E4545247214515482081041248208104124820813499E300
Track 4
FFFFFFFFFFFFFFFFFFFFFFFFFFFFBFAA081AA8B082FEFBEFFDA7155548252515
512081041248208104124820810412554849F5D4552081041248208104124820
810492504949451552440595154820810412482081049251493995D454481545
14482081041248208104D255493945D453578104124820810412482081049251
4F552515554881041248208104124820810412554F3995D45148510512482081
041248208104D254543D35D45249397514482081041248208104926B9A03FCFF
FFFFFFFFFFFFFFFFFFFFFFFFFFAA2208219ADCFAEF3FFCA71554490DB5144820
81041248208104124820810412544F5105124820810412482081041248208104
12544F31C5144820810412482081041248208104525455255514552081041248
2081041248208104525455254515482081041248208104124820810452545505
35D4522081041248208104124820810492544139051248208104124820810412
48208104925455390512482081041248208104124820810412493203FEFFFFFF
FFFFFFFFFFFFFFFFFFFF7F551144507DE2FDF7DFFB4FABA98AB2AA28A7400209
2490400209249040020924A29E4ACAA9A34002092490400209249040020924A1
AA4A8A29A240020924904002092490400209A4A190AA4AAAA190020924904002
09249040020924A39EAACA29A24002092490400209249040020924A8982A2AA8
A98A02092490400209249040020924A48A0A4A2AA24002092490400209249040
0209A4A1904A8A29A2A42ACA2990400209249040020924A59007F8FFFFFFFFFF
FFFFFFFFFFFFFFFFFF55455042243DF5DF7FEF3FADA47A0AAAA2400209249040
020924904002092490A47A8AA8A2400209249040020924904002092490A47A8A
29A6400209249040020924904002092490A62A2A28A640020924904002092490
4002092490A62AAA28A2400209249040020924904002092490A64ACAA9A54002
09249040020924904002092490A67A6AA8A54002092490400209249040020924
90A61A0AA9A79E620A249040020924904002092490A48B1FE0FFFFFFFFFFFFFF
FFFFFFFFFFFFFFFFFFFFFFFFFFFFFFFFFFFFFFFFFFFFFFFFFFFFAA2208A0DACC
FAEFFFFB4FABA0987ACAA9A340020924904002092490400209A4A19E62EA29A9
40020924904002092490400209A4A9AE4ACAA9A3400209249040020924904002
09A4A182924AAAAC4002092490400209249040020924A78A0A4A2AA6B2020924
904002092490400209A4AC82928A28904002092490400209249040020924AA9E
0A8A28904002092490400209249040020924A68A0A4A2AA74002092490400209
2490400209A49E9A07F8FFFFFFFFFFFFFFFFFFFFFFFFFFFF55455041E50DF7DF
FFF79F565015F514544C15051248208104124820810412484749F554554E1105
1248208104124820810412484D3D259553493975144820810412482081041248
47052515514539051248208104124820810412484D3D55D55445810412482081
041248208104124842157554504E810412482081041248208104124852151514
5159810412482081041248208104124857499514554581041248208104124820
810412489B310DF0FFFFFFFFFFFFFFFFFFFFFFFFFFFFAB8AA0804A3BEABFFFEF
3FAD9C7A2AA9A98A0209249040020924904002092490980A8A28A28A920A2490
40020924904002092490867ACAAAA2A402092490400209249040020924908492
AAA8A0880209249040020924904002092490907A4AAAA98A0209249040020924
90400209249082722A2BAA904ACAA9A34002092490400209249084922AA9A390
A20A249040020924904002092490840A6AAAA58AA20A24904002092490400209
2490AAA218E0FFFFFFFFFFFFFFFFFFFFFFFFFFFFAB8A2083AA03EDBFFFDE7F5A
211554534D152515482081041248208104124820315595534149051248208104
12482081041248204D559554504995D45445810412482081041248205185D453
551D85145520810412482081041248206555D454541525155141650512482081
0412482035159454423155D454208104124820810412482035F5545554210512
48208104124820810412482011F514534C052515482081041248208104124820
F9D434C0FFFFFFFFFFFFFFFFFFFFFFFFFFFFAF2A8204AA8CA4FFFE7BFF691594
534F518554515281041248208104124820811494544F55E51451208104124820
810412482081245451430555D5544581041248208104124820811414534D3D35
155520810412482081041248208184D453554D55144820810412482081041248
208134D55352499515482081041248208104124820816454554E399515482081
041248208104124820814454504E0D551448208104124820810412482081E4D9
D900FFFFFFFFFFFFFFFFFFFFFFFFFFFF5F55041D545C60FFFD7FFF6905104058
21061040582106124820810412482081E4D45344810412482081041248208104
12482081E45451574D051248208104124820810412482081E4D4534F39051248
208104124820810412482081F414544539051248208104124820810412482081
F494515415E51448208104124820810412482081F49455454905124820810412
48208104124820810455504E81041248208104124820810412482081641BE800
Track 5
FFFFFFFFFFFFFFFFFFFFFFFFFFFF5F550515649D7CFFFD7FFF69255455538104
1248208104124820810412482081345450548104124820810412482081041248
2081345455548104124820810412482081041248208134D4534F310512482081
0412482081041248208134D4534F2D05124820810412482081041248208124D4
534F2D05124820810412482081041248208124D4534151051248208104124820
81041248208124545153510512482081041248208104124820815490F400FFFF
FFFFFFFFFFFFFFFFFFFFFFFFAFAA8202B2CCAEFFFEBFFFB4BA2A28A698020924
904002092490400209249040BA2AA8A990020924904002092490400209249040
BA2A28A7882A4A2A904002092490400209249040BAEA29A99602092490400209
2490400209249040BA0AA9A0982A0A24904002092490400209249040BA2A28A6
96020924904002092490400209249040C24AAAA0B20209249040020924904002
09249040CAEAA9A58A02092490400209249040020924904072087F80FFFFFFFF
FFFFFFFFFFFFFFFFFFFF575541069917D97FFFDF7F5A11F5D451208104124820
8104124820810412482011F5D453528104124820810412482081041248201955
9554208104124820810412482081041248201955545154810412482081041248
20810412482019F5D4535481041248208104124820810412482019F5D4534C81
04124820810412482081041248201DF5D4534481041248208104124820810412
48201DF5144820810412482081041248208104124820BDE63FC0FFFFFFFFFFFF
FFFFFFFFFFFFFFFF575541029956D17FFFDF7F5A65F554552081041248208104
12482081041248206555D4542081041248208104124820810412482069559450
5205051248208104124820810412482041159453544995154820810412482081
0412482041159454546505124820810412482081041248204115945454810412
482081041248208104124820411594544B810412482081041248208104124820
39F5D45520810412482081041248208104124820DDA432C0FFFFFFFFFFFFFFFF
FFFFFFFFFFFF57554107D907DB7FFFDF7F5A2155955454810412482081041248
2081041248202155545054810412482081041248208104124820215554514C81
041248208104124820810412482005E554562081041248208104124820810412
482009F5145159810412482081041248208104124820095595544E8104124820
810412482081041248200DF5D4534B2555144820810412482081041248200D15
945344650512482081041248208104124820B11737C0FFFFFFFFFFFFFFFFFFFF
FFFFFFFF57554103D946D37FFFBDFFB49A0AA9A49C2A0A249040020924904002
092490409A2A29AA40020924904002092490400209249040A2EAA9A7A8420A24
904002092490400209249040A24AAAAC40020924904002092490400209249040
A24AAAA28A020924904002092490400209249040A2EA29A84002092490400209
2490400209249040A2EA29A740020924904002092490400209249040A20AA9A2
40020924904002092490400209249040B22E7980FFFFFFFFFFFFFFFFFFFFFFFF
FFFFAFAA82103AE8ABFFFEBFFFB422AAA8A2A002092490400209249040020924
904022EA29AA400209249040020924904002092490402ACAAAA2A40209249040
020924904002092490402ACA29A2400209249040020924904002092490402AEA
A8A3400209249040020924904002092490403A2AA8A68A020924904002092490
400209249040622A28ADB202092490400209249040020924904062EAA9A79602
0924904002092490400209249040022D7B80FFFFFFFFFFFFFFFFFFFFFFFFFFFF
AFAA8208326EBAFFFEC37F5A5185545253810412482081041248208104124820
5185545054810412482081041248208104124820052515552081041248208104
124820810412482005E514552081041248208104124820810412482009555451
2081041248208104124820810412482009151455208104124820810412482081
041248200955D551208104124820810412482081041248200955145520810412
482081041248208104124820197630C0FFFFFFFFFFFFFFFFFFFFFFFFFFFF5755
41095DE4D77FFFDF7F5A3195D452458104124820810412482081041248203155
D451208104124820810412482081041248203515145145810412482081041248
2081041248203515945359810412482081041248208104124820351594532081
041248208104124820810412482035F554534D65051248208104124820810412
4820111514514465051248208104124820810412482011959454548104124820
81041248208104124820455735C0FFFFFFFFFFFFFFFFFFFFFFFFFFFFFFFFFFFF
FFFFFFFFFFFFFFFFFFFFFFFFFFFFFFFFAFAA820032ECAAFFFE7BFF6945555050
8104124820810412482081041248208144D553550D8514482081041248208104
12482081449554494105124820810412482081041248208154D5544581041248
2081041248208104124820815415542081041248208104124820810412482081
5495534415251548208104124820810412482081645550531505124820810412
48208104124820816455515265051248208104124820810412482081F491DF00
Track 6
FFFFFFFFFFFFFFFFFFFFFFFFFFFFABCAA084846AE9BFFFEF3FADA87AEA299040
0209249040020924904002092490A0AA8A29A640020924904002092490400209
2490A6BA2AA9A6400209249040020924904002092490A07AEA29A64002092490
40020924904002092490840A6AAAA2840A8A29A6400209249040020924909C7A
6AAAA24002092490400209249040020924909E628A2890400209249040020924
9040020924909E728AA9AC4002092490400209249040020924904AD31D00FCFF
FFFFFFFFFFFFFFFFFFFFFFFFFFFFFFFFFFFFFFFFFFFFFFFFFFFFFFFFFFFFFFFF
FFFFFFAA3208A0E908FAEFFFFB4F2BA2AA6AAAA9AC4002092490400209249040
0209A4A182920A249040020924904002092490400209A4A182720A2490400209
24904002092490400209A4A592A28AAAAC4002092490400209249040020924A1
AA628A29904002092490400209249040020924A1AA72CAA9AC40020924904002
09249040020924A18A924AAAAC40020924904002092490400209A4A19E628A28
9040020924904002092490400209A48F8006F8FFFFFFFFFFFFFFFFFFFFFFFFFF
BFAA0C2A68B0D0FEFBFFFED3AAA9A09C02092490400209249040020924904002
A9A9A2A69A0A2490400209249040020924904002A9A9A7A842AA28A940020924
9040020924904002C9A8AA9C722A2B90400209249040020924904002E928A99E
BA0A249040020924904002092490400209AAA48A020924904002092490400209
24904002692AA49EBAAA28A940020924904002092490400249AAAA982A0A2490
400209249040020924904002C9A38A01FEFFFFFFFFFFFFFFFFFFFFFFFFFFAF2A
83021AAEA4FFFEBFFFB442EA29AA40020924904002092490400209249040422A
28A788020924904002092490400209249040422A28A8A0CA0A24904002092490
4002092490401A2A28A98802092490400209249040020924904022AAAAA6A002
0924904002092490400209249040222A28A7862A0A2490400209249040020924
9040224AAAAA9A02092490400209249040020924904022EAA9A7A40209249040
020924904002092490403A8F6580FFFFFFFFFFFFFFFFFFFFFFFFFFFF55659041
B309F7DFFFF79F564E3D45555120810412482081041248208104124852154514
4820810412482081041248208104124854491514542081041248208104124820
810412485715C514532081041248208104124820810412485305451448208104
124820810412482081041248503DB55451208104124820810412482081041248
5305951548208104124820810412482081041248543D95154820810412482081
04124820810412483F090CF0FFFFFFFFFFFFFFFFFFFFFFFFFFBFAA0C12683EA3
FEFBEFFDA795515539E55456208104124820810412482081049251414D451548
2081041248208104124820810492515539051248208104124820810412482081
0492514949351555208104124820810412482081049251493955144820810412
4820810412482081041252413945144820810412482081041248208104125241
410555562081041248208104124820810412524F355514482081041248208104
1248208104D26B4303FCFFFFFFFFFFFFFFFFFFFFFFFFFFAF2A830E1A6DBCFFFE
7BFF690555555041951548208104124820810412482081045550501525154820
8104124820810412482081049554455145555620810412482081041248208104
555547810412482081041248208104124820813455554E810412482081041248
2081041248208134D55249410512482081041248208104124820810415534165
0512482081041248208104124820819455514C31051248208104124820810412
4820818413ED00FFFFFFFFFFFFFFFFFFFFFFFFFFFFABCAA081C63BEBBFFFDE7F
5A21F514534581041248208104124820810412482021F5145520810412482081
04124820810412482021F514542081041248208104124820810412482021F594
545315051248208104124820810412482021F5D4535081041248208104124820
8104124820253554512081041248208104124820810412482025E51448208104
1248208104124820810412482029555553508104124820810412482081041248
20F14633C0FFFFFFFFFFFFFFFFFFFFFFFFFFFFAA320821A918FAEFFFFB4F2BA1
98AAAA28904002092490400209249040020924A1980A6AA8A540020924904002
092490400209A4A3A42AAA28A740020924904002092490400209A4AC8A628AA9
A7AE020924904002092490400209A4A7A40ACAA9A38A02092490400209249040
020924AA926AAA28904002092490400209249040020924A8923A0A2490400209
24904002092490400209A4A19EBA0A24904002092490400209249040020924DC
CA06F8FFFFFFFFFFFFFFFFFFFFFFFFFF5F550611341960FFFD7FFF69A5545052
81041248208104124820810412482081C4545154810412482081041248208104
124820812454524C319515482081041248208104124820814454504E39951548
208104124820810412482081C4D4534F2D051248208104124820810412482081
C454525081041248208104124820810412482081C45452448104124820810412
4820810412482081D45451413905124820810412482081041248208154DADD00
Track 7
FFFFFFFFFFFFFFFFFFFFFFFFFFFFBFAA0E3A0832E9FEFBFFFED3EAA9A640222A
A9A9960289A8A0A80A0A24A39262AA289082728A289100C28A30EA02B24CA4AC
9EAA0AA4A0A42A0A24AA9E02E9A8AA8A9A6A2A9092A20AA4A04062AA28AAA82A
4A2A9092A24A2480FC22CCBA802C13292890A84AAAA9A25C022928A3A82A4A2A
908A0A6A28A440BA4AAAA79C3A0AA4A3AA2A6AAAA94402A834C2B60BC8329182
0209AAA7A4A22AA9A79C02E929A340CAEAA9AA40BA2A29A6980289BCC001FEFF
FFFFFFFFFFFFFFFFFFFFFFFF7F551D34107456FDF7FFFDA7D554543D05154820
810412482081041248208104D2514F8104124820810412482081041248208104
52505235051248208104124820810412482081041253451D0512482081041248
2081041248208104125245054514482081041248208104124820810412524125
2515482081041248208104124820810492514949551448208104124820810412
482081041251413975545152810412482081041248208104D2663303FCFFFFFF
FFFFFFFFFFFFFFFFFFFFFF5575104261F5F4DF7FEF3FAD842A0A24A48272EAA8
A2881209A0E508032F20CB440ACA28AA8A920AA49C40BA4AAAA79C3A0AA4A3AA
2A6AAAA98A9A0AA4AC9EAAEA24A98A0229289100828FB0F202B24CA4A39E72AA
28A95C022929A340CAEAA9AA40BA2A28A7A80289AAA740CAEAA9AA401A2A28A7
4402A8A2C2CE0BC832918EAAAAA8A9A602892AA48A02E92AA49E62AA2890AE7A
4A2AA2400ACAA9AC40A22AA9A68A120920A00A532F20CB88FA1CE0FFFFFFFFFF
FFFFFFFFFFFFFFFFFF57D541048116DB7FFFEF3FAD46134C2680328B09269800
4A4D30B200720CA0D704730B20C700AA4D30BC00720CA0E104630CA0A162620D
269DB28A89359800624E30CB0092CC26966E02E83AC16C0A88B1986082092698
00124F30A002622C269862C2092680001A4CB3800A0B0AA59B6A4A8925A150BA
A9A694581A0AA59B6A4A8925A14842492698520288A1C13E0BA8B0A248422926
9B520228A3C1440B2828A2589B6926996EC209209212F21AE0FFFFFFFFFFFFFF
FFFFFFFFFFFFFF57D54109C5C5D17FFFDF7F5A8944155245817452471465F554
555281745455454D355547179D04D254491DE51448433DD554515381F494532E
8904105285D11790653A5906105C85D91790652211F51448593D5515485705E5
14552051F51448531555144857211514552065F55455205D9514534C8904D066
85E11710612231F5D4534B81C454524B15055252468194D55355816454504931
05124A5981F49454203995D24F22EDE4D44D249D843900FCFFFFFFFFFFFFFFFF
FFFFFFFFFFFFFFFFFFFFFFFFFFFFFFFFFFFFFFFFFFFFFFFFAA3A0820F06AFAEF
FFFB4FABA3A40ACA29A29A0A0A24904002092490400209A4A3A40ACA29A2A00A
0A24904002092490400209A4A39E7A8A28904002092490400209249040020924
AA8A720A24904002092490400209249040020924A98A9A8A2A90400209249040
0209249040020924A88A720A24904002092490400209249040020924A88A726A
A8A49802092490400209249040020924A8824A8A299040020924904002092490
400209A4B66206F8FFFFFFFFFFFFFFFFFFFFFFFFFFFFABEAA0826083ECBFFFEF
3FAD061B2D20C970D2C9329D2C0308ABC1480BC8329126BAEAA9AA98220AA4AC
9EAA0A24A6925AAA289092726A2AAAA4AA6A28AA927ACAA9A940FA49249D2C13
09A5AC407A4A2A909C4A492791760248ACC14A0BA8B2A08862092680F41ACCB4
80A662CD3694704A4927C57A432928A252620DA6D068924926802E1BECB480A6
62AD379482222A259D081349A49DB4D28A249DB4D28A24D6844369AA94008A6D
30D45E8A1EE0FFFFFFFFFFFFFFFFFFFFFFFFFFFF57D54101C147D17FFFDF7F5A
491554524E8104124820810412482081041248205D9594534481041248208104
12482081041248205D1514554549051248208104124820810412482041551454
532505124820810412482081041248200DF5D452458104124820810412482081
041248201115545620810412482081041248208104124820091514534C810412
4820810412482081041248201995D45448810412482081041248208104124820
61F739C0FFFFFFFFFFFFFFFFFFFFFFFFFFFFAFAA830C026CBEFFFE83FFB40A48
31ADB4228935919C124935ADB4228935919C7A4AA4D06A82092680701B8CB980
24C309A0F106732E20CB449A882AA4929A0AA4A4A602892AA48A02E9AAA7A422
0AA4A3826AAA28909E320AA488900ACAA9A39A0ACAA98B44026821C2A00BC832
91A842AA2890867AAA29A8AAA2AA28A9401A0AA9A79E9AAAA8A9400A0AA4AB9E
928A28908C92EAA9A644022826C2A40BC8329192A2EAA4A940922A28A788422A
7B80FFFFFFFFFFFFFFFFFFFFFFFFFFFF5F55070904DC5DFFFD7FFF6935D55343
0D5594542081041248208104124820812454504C31F5D4534E81041248208104
1248208114145450315514482081041248208104124820813494545981041248
2081041248208104124820812454504265051248208104124820810412482081
741453414D3515482081041248208104124820812455524E1D05124820810412
48208104124820816454524E15051248208104124820810412482081F4DDC300
Track 8
FFFFFFFFFFFFFFFFFFFFFFFFFFFFAF2A840C82ACB9FFFE7BFF69D51A6B226925
526839D9041340AE21C6DA408CCD04134C3001941C62B00D64D95024ED241248
494D0592534F5105525020315514555415259548004D87986C033136134C34C1
04107788D936106237E1041340E82106DC408125C55A4C9E11351340FB21A6DC
408A1545124A49A5C4DA50248516134C33C104904089513790604901E45062DE
0D145852ACC5E419533901145262E80DA4985024A194544AAC0D35DED500FFFF
FFFFFFFFFFFFFFFFFFFFFFFF5F550809045D52FFFD7FFF69051248208194D553
55B5241240B319A699408CC904134C30E924994D2CDD045075866D26D0612251
25124B34C104134C3A1D26925422B114134B4EE144126922B9C454524289C452
4C0089675867023D16134B31EDE4144B5701549F619E0944544CACC1A4135132
B106934E44CDC41A4C002D74D8680245C5DA6B28A1E4546931A5649A6D284D95
126932A504D046879126D06331B114D54E4D91B4554C3675051CFD00FFFFFFFF
FFFFFFFFFFFFFFFFFFFF5F55081D04187BFFFD7FFF6945526831C134134C00A1
94987C03099614403225C6DF4088C504534D3001C453620611C4D84C30C10413
405B25861041968994D5535581449554491545144822ED3414493B8904925045
19F594544589045059892944106333C144134C00B9951844042176134E300174
57621A1104554CACC104D060899144105431B106554CA4C504D0648999449062
50C5B41A53398516534C33C104106889A54450604AB16651F500FFFFFFFFFFFF
FFFFFFFFFFFFFFFF5F55080D041C5AFFFDF7FED30AA0900E434D20C70062E930
DE04626CA6986082092680763A4C3B81249B89259858B289259B589209A0A30E
F34EA0C092622D26CF98CA0920A90E234F20CB446A092491760208ACC3DC1348
2892504A2A25D64402492480DC3A6C3E818A2209A5A452624D24904402A8AEC3
F01348B0A40002ECB08106926C26966062092780263BECA0812C632AA79D4402
89A9A2A8A2AA28A9A61209A0CC0E636820C700E2CD21C701FEFFFFFFFFFFFFFF
FFFFFFFFFFFFBFAA104228AE81FEFBEFFDA715543179C6544E00E196984B0429
361449ADAD561C4A4191C492522CC594526831C184934C000597D84C04411513
6B4A01B45C62381184584C30E5041340D225A61341822905107789F544106231
C534134C00A1979850041115136B44C5445A4C00D1971853041125136B44C944
5A4C0009A49855040945124A50C594126B43910410438A8145106231C164134C
0071A4985A042946944CAC3195536831C97453609903FCFFFFFFFFFFFFFFFFFF
FFFFFFFF7F552144106C8FFDF7FFFDA7D561110D64994E92CDC4124C2CC1A413
61225994D553554905D251551535D55420FD34114822ED441449002D77184803
4966134B37B134134B30B1041340F11DA6D24096890412482081041248208104
1248208104124820810412482081041248208104124820810412482201A4DF61
520D44544CACC1041041887135D05024B1461449005584185C0329E61B4A4391
94126B318596934C30015412627A0DA4185A3F03FCFFFFFFFFFFFFFFFFFFFFFF
FFFFBFAA104A282C91FEFBEFFDA7154C00ADA4185D042946544CABC1145A4C32
DD0413403729E6174144CDC41A5133911613404529861841459184125133A5C4
DA5024010495628D11C4984C30C104134C007DA59864042946D44CACE5145A4C
34C50413406D29661A418125C55A4C9E113553693101B49762B011149852AC25
455A4C9E113513409129A61B418A1545124A49A5D45A5124A1A4544AA1C52453
4D3001149A62C41154144928C19412598303FCFFFFFFFFFFFFFFFFFFFFFFFFFF
FFFFFFFFFFFFFFFFFFFFFFFFFFFFFFFFFFFFFFFF5F55080104DF42FFFDF7FED3
0AA0E10AF32F20CB74224C24AA902A0A24A7826AAA28909E320AA4AC9EAA4A2A
90984A4A28A982922AAB9F40126927A770220920E70A1B4820C9666209269660
0248BBC2101228B0A4588BC9B3986C02A820C32412C832914002092490400209
2490400209249040020924904002092490400209249040020924904002092490
40020924910062C8308E04122C29803C32CC24811473EA26925A5B4DA4AC440A
ED30A101FEFFFFFFFFFFFFFFFFFFFFFFFFFF5F550815049A6BFFFD7FFF693514
49AC0545526831CD94134C00BD841861033136134C30C1049052881936906522
51855450549D3415484E3D4515485421551448573D2515512201641562870D44
D44CAC113513693101041662890DC4D84C30D10413406B21A6D8408CC904134C
30C104905E883136906244CDC45A4EA1C544534C30013418628E0D84D84D38C1
04D06488613690624391D49A484189145A4E34C104106988893690624391D493
EB00FFFFFFFFFFFFFFFFFFFFFFFFFFFFAF2A8402024FA5FFFE7BFF6965934D30
01749261800944D44CACE504904C862926106332C104134C30012494618C0914
5852ACC5E4594D30C1A493604901D494618E09C4D84C30C104134C0059651865
024966134B3101749761960924D94C2CC1C4924C30E9649948493935D4535249
55D4505481745455454D3555515389041063866126906433B104134B32E1A493
65224D35D4535215251240A41996994096898454504E1DD554504EB564D0CA00
Track 9
FFFFFFFFFFFFFFFFFFFFFFFFFFFFFFFFFFFFFFFFFFFFFFFFFFFFFFFFFFFFFFFF
FFFFFFBFAA120268389DFEFBFFFED38AB5A2484229A994008A4D31E7082A8A24
94924A89B5A2484249A994000A4E31EC082A8A2494944A89B5A2484209A69400
424E31F108124C29809E538C3D82044B0A20EF14B38F20C966620926966862C9
26966402483DC5F02328B0A4588BC933A67202483FC5002AC832A1484229A994
7612092491760228A0C5142A48B0A4008A68B1870A528C289958632AA7D0629A
292798000A6931890A526C2892580BCA2CD301FEFFFFFFFFFFFFFFFFFFFFFFFF
FFAFAA840A9AECB3FFFEBFFFB41249A7C40022A931870C020C20951A83EE20C7
00D2A931ED0E926C2696706269269874B26CA898005AAA31F20E926C269662B2
89A59960D2C9B2AC620228AAC6DC3BA83180AE6A0CB7851C0388ADC67A5B28B0
A4588BC9339960D209B29B58B289269D044B0AA0BE1A136E21C966620926966C
A289259B588AA92680066BCCBA851A0328B1C6C05BC83180366B4CBD85024B2A
26D662F2AC269860D249B0A46282AF6B80FFFFFFFFFFFFFFFFFFFFFFFFFFFFAB
2AA180A6DBE8BFFFDE7F5A91145A4C33E5041340312D46514192CDC4124C2CC9
44134B36B17413403D2DE651418125C55A4C9E113513404D2D3652418A113553
6BABC5145A4C33C90413405D2D465241459184525229B156144928C19412406D
2D865241961545124A49A5B493482089B41340742D265341822505D0608BF154
906433B104134B36B164134B3201F4D8624615145852ACC5E419533901A4D962
50156499482D8124D24E00799536C0FFFFFFFFFFFFFFFFFFFFFFFFFFFF559590
41A3F1F7DFFFF79F5600ADD6187D0B4936134B30B164134D2CD9C4D24D0059D7
18420C5926124820810412482081041248208104124820810412482081041248
20810412482081041248208104124820812412400039D6104396890412482081
0412482081041248208104124820810412482081041248208104124820810412
48208104124822016490631231D418400C39C611438E01749163263124D94C2C
C1C4124D0009E5184C6C990DF0FFFFFFFFFFFFFFFFFFFFFFFFFF7F552524D078
78FDF7FFFDA755688B695590604901A4DA62641584D84D38C104106D8BB95510
6333C104134C0001B7D85B054936134B30B114134D0075B7D85C05591614493B
89D41255480545D54953819414552D65F55455205D959453220194DE62741594
554CAC65151369310134DF62781584584C34E5041340FD2D2658418CCD04134C
3001941063871524D94C2CC1C4524C34016412638C1564994849817455524EB5
441552458174157D7D03FCFFFFFFFFFFFFFFFFFFFFFFFFFFBFAA123A68B6EEFE
FBFFFED38A21CB44020924904002092490400209249040020924904002092490
40020924904002092490400209249040020924904402A82DC76A62C832914002
0924904002092490400209249040020924904002092490400209249040020924
904002092490400209249100C2CC319B18B24C24904002092490400209249040
0209249040020924904002092490400209249040020924904002092490400249
248048738C3AB901FEFFFFFFFFFFFFFFFFFFFFFFFFFF5F55090D345F56FFFD7F
FF69F59454448194D4542089B453502401241363AA1534544CAC0D1513693101
541563D21554595044B104934E96890415534165055250470595945320A19415
484F49059253298124D24E00B9C5D875054DC59A6D28DD94924E8AF586525044
A5C41A4CA1C544534E3501B41863DC1534156BBDA114145129E944984822EDE4
D44D24E9E4D44D24B1261C4A53A50450658C7957106332C104134C007DC65878
0531A617CD00FFFFFFFFFFFFFFFFFFFFFFFFFFFFAFAA8410124AA6FFFEBFFFB4
D28921C9666209269664A20920E71C238A21CB44020924904002092490400209
2490400209249040020924904002092490400209249040020924904002092491
00D2CEB1A418926C2696606229269A002AE831A518B24C249040020924904002
0924904002092490400209249040020924904002092490400209249040020924
904002492480607A6C29862C1309249040020924904002092490400209249040
E24A7080FFFFFFFFFFFFFFFFFFFFFFFFFFFFAB2A218206F3EDBFFFF09F5633C1
44134C00C9C698790529E6D44D24B5B69A485989145A4C35C9041340BC31865E
418CCD14134C3001541C63EA1584984D37C104D0768CC157906436B174134B31
D1C4524C32B134134B32D1C4124E00E5C718410659269247107534D1514F3D45
144842655554514581145248217904514717890490478D2564906433B164134D
2CC1A453605845C51A4C9EC504134C30E924185651E94499484D15E5545521B9
0EF0FFFFFFFFFFFFFFFFFFFFFFFFFF7F552594905413FDF7FFFDA71548208104
1248208104124820810412482081041248208104924800EDF498530C3136134C
30C1041340413D8615438D01E4D563A03DE41848454925D55352814495544141
0555524E1D0592544F554555524E1505105C8FA9F6D061221525124B4631C552
5152B1C494530085F6186D0F29569454ACC54453689689C45452424915945459
8124D24E4EE144D24E2211F554515381E4D4535481541456494D45954DAA0300
Track 10
FFFFFFFFFFFFFFFFFFFFFFFFFFFF5F550A11645D7BFFFDF7FED3AA2680548B0C
2594248B8926966662092696600208B6C87842A931806C8B0C24A71C03E8B7C8
5472CAAA9C588B09A0E822A3C929C5ACCAA935D6889A2934996082A9269800BA
2E329F9C6A0CA08A2493CA29CEACCA89319962B2492698589229269B72828925
9962BA492698589229A69B6A8289259962CA0926985892492698608289259964
8A092698589249A699608289259964A2092698000A4932AE9CB20AA0CD01FEFF
FFFFFFFFFFFFFFFFFFFFFFFFBFAA144AE820A0FEFB0FFF690512482081041248
2201541365A25525D94C2CD914134B31CDA49365228104924800054519695549
66134B37B114134D001D45196D553506105594C157956431D5C4924D2CCD9413
406751865F5592CDC4124D39B114134D3A59261248208904106094E957956433
B154934C2CC544934E968904D25455415594542081241240935146905592CDC4
924D31B114134D3A592612482089049069943964956433B1B41DFF00FEFFFFFF
FFFFFFFFFFFFFFFFFFFFFFFFFFFFFFFFFFFFFFFFFFFFFFFFFFFFFFFFFFFFAB4A
21802C4BEBBFFFEF3FAD44D209B19A628209A0EE1EF3ED21CB448A08AAA09C4A
6A28908C4A8AA9A2402A4A2AA99E924AA28B40126927A770226927915C622A29
A14002A928A97A1269A7A2A4DA4924904062CAA99E44DA8929A774020CA0F11E
83E824C700D2EFB18A4E922CA69A588AA9A69A5892892696629289259B589A89
268006828CA49392626DA698007A0832974E926C269666AA89A5A400120932A1
4E0A6C29D662F24C269CB0131EE0FFFFFFFFFFFFFFFFFFFFFFFFFFFFAB4AA182
8C63EEBFFFEF3FAD7262CDAA9C488B0920962433CB29C4648209269960020828
C9E8A24AB2986A626926966A9A89A59958B289A5997202C829C9F0A2CA329154
524925955452492480B4924C2FAA249B89A59A6262892680D8928C2FAA2C1309
2490400209249040020924904402082FC9FCA24A329B58BA89A5986802C82FC9
24A3AA318024934C37AA248BA926966662A9A69958AA89259B58B20926804093
0C39AA2C1309A4B7BCE31DE0FFFFFFFFFFFFFFFFFFFFFFFFFFFFAB4AA1800C43
EABFFFEF3FAD74926C269974126C29806882CCAA9324B389A599726269269668
9A89A59962022829C8D43AC9329190022928909C02E928909A022928909C1209
A0A720A3EB24C700DA0A32BF4E926C269666AA89259800720B32C44E0A6C29D6
62F24CA69874926C269974126C2980E8824CB2931C030830C8383B29B0A45883
C9B39962028831C84C3B49B299589AA926969202C833C8603B29B0A5588BC933
9974926C2699C87218E0FFFFFFFFFFFFFFFFFFFFFFFFFFFFAB4A2183EC7BEDBF
FFEF3FAD4002E92D9044028835C994A34AB29958AA4926966C028837C99CA3CA
3291B60209249E7C0209A4AE44020839C9A6A34A329B58BA89A5986802C839C9
ACA3AA3180C4930C3BAA248BA926966662A9A69958BA89259B58AAE92680E093
CC3BAA2C13092490BEFA0A24904402883FC9C0A34A329B58BA89A598680248A0
C9D8A3AA31802C9ACC3EAA248BA926966662A9269A58C289259B58AAC9268044
9AACA0AA4C4A1CE0FFFFFFFFFFFFFFFFFFFFFFFFFFFFAB4A21816C5BE9BFFFDE
7F5AE924D852009506996E2709961440AB41F6DB498D01141B64C49DE41840C1
41E6DC4992D9C4124C2CCDC4924D34B1041340CC4136DD494161C55A4C31C904
107790617752604165C55A4C30D1E4594C32DD04507D908977926432D554134B
36B114134B32B124534D33B11414562C05951540FD41C6DE4982059515400945
66DF4992C954534D2CC5541340374506104A92CDC4524D32B164134B31D5C492
4C2C054636C0FFFFFFFFFFFFFFFFFFFFFFFFFFFF5795420799E7D87FFFBDFFB4
B24C24904002092491009A69B286AA92CC269666AA89A59958AA8926967202E8
A7C920AACA32915452492595440288AAC9DCAA4AB2986A6269269668CA89A598
6062C9269666AA0920B526A3AB2ACB4452092495405209249540520924954052
09249100BA6B32BBAA926C269668CA89A5986202A8B1C9F0AACA329140520924
95405209249540520924954052492480329B4CAFAA24B389A59B588A8926803E
6BED7F80FFFFFFFFFFFFFFFFFFFFFFFFFFFFAF2A8506324DA1FFFEBFFFB492A9
269A588289259B606229A69B588AE9269662BA89A5986E6229A69C6A6249A69A
6A0248A8C80A4229B0A858BBC9339C005A2B328550926C26966A9289A5A85892
8925996AA2892599688289259858828925985882892598588289A5986A6249A6
9A6A0248AEC81E4249B0A800E22C328A50926C26966A9289A59C58928925996A
A289259858CA2927966CC289259B7062C9269C58B20927966AA28925996A4ACC
7680FFFFFFFFFFFFFFFFFFFFFFFFFFFF5F550A21745158FFFD07FF6935995F55
3506106D933156956431D5C4D24C2CD194134B31C9C4924D2CCD941340BE4D26
595596890412482201B4DC64945525D94C2CD524134B31C904D0769359569565
22810412482081041248208904107A936156956433B164534C2CC5241340F24D
A6595596890412482201F4DF649C5525D94C2CD194134B31CD04504294795695
6522810492480089441968554936134B35C9C4524C33E96499482081449BC300
Track 11
FFFFFFFFFFFFFFFFFFFFFFFFFFFFAFAA85042A4CA3FFFEBFFFB4AACC35AB24B3
89A5986C0288B7CA70B34AB29958AA49269662C24927CB440209249040020924
90401209A0EA2AEBCD2AC96662A92699588A29279D2C13092490400209249040
02492480BAAB4C38AB248B892680E2AB8C39AB249B89A59A646249269874B24C
249040024924800AB2CC3AAB249B89A59A6E6249269874B24C24904002492480
32B20C3CAB249B89A59A646249269974B24C249040024924805A22AA6380FFFF
FFFFFFFFFFFFFFFFFFFFFFFF57D5420755F7DB7FFFBDFFB48209209230532A2F
C19AC209209830A32A2FA67262AD299C4A8B0920A030F32AAFA048626D38949A
228925A6724A0920A330432BAFC600620A33A886030C20800002082080000208
2080000208208000020820800002082080000208208000020820800002082080
0002082080000208208000020820800002082080000208208000020820800002
08208000020820800002082080000208208000020820800032A97580FFFFFFFF
FFFFFFFFFFFFFFFFFFFF57D5420355B6D37FFFDF7F5A59A69E5592CDC4524D37
B124934C3A5926124820812412403959469F5592D9C4D24D2CC54413403F5986
D0558D01C494651C5D25594C34B164134B31D904105896C174956433B154934C
2CC944934E9689041248208904105D96E974956433B154D34D2CC944934E9689
0412482089041062961175956433B154934C2CC964934E968904124820890410
67963975956433B154D34D2CC964934E968904124820391739C0FFFFFFFFFFFF
FFFFFFFFFFFFFFFFAB6A21844882EABFFFDE7F5A51275842003906925047B5F4
94532F09C55450432DF552515205355551204115D45145BD64D4512D3DE5D44B
47495554514EBD2414534939B5544B4F1965D44B1E41C45047123D0490458329
04906316A9A4924A2AA9A4924A2AA9A4924A2A81341152413975545341390512
534909255550522515945320B564554C2EC1D4924520A9A4924A2AA9A4924A2A
A9A4924A2AA9A4924A2AA9A49244005935184300C15531C0FFFFFFFFFFFFFFFF
FFFFFFFFFFFFAB6A2182CAE3EEBFFFF09F562201849A65585D25994D2CDDC452
4C3401E49A656C5DD51840BE5906D85592C544134B36B154934D2CC5541340D0
5986DA5592CDC4524D33B124D34D3A592612482201249E65B25D25D94C2CD584
134B32DDA493652281241240EC5976DB5592D9C4924C380124D065BC5D25D94C
2CD194134B32E1A493652281C4934F3CF9241240185D66DC5592CDC4524D38B1
24134E3A5926124F3EF1E41348220124D2657A810CF0FFFFFFFFFFFFFFFFFFFF
FFFFFF7F552D94104D71FDF7DFFB4F2BC72C5209249040020924904002092490
4002092490400209249040020924904002092490400209249040020924904002
092490400209249040020924904002092490400209249054920820CB067B0820
C72C520924A28262AA2890882AEAAAA2B20209A49B64C2892690904AEA28A4AC
4AAAA8AB40A24AAAA092620A2490AC4A6A28AA9E928A25909C72292B97400209
2490400209249054920820EB069308A0EDBC0600FFFFFFFFFFFFFFFFFFFFFFFF
FFFFFFFFFFFFFFFFFFFFFFFFFFFFFFFFFFFFFFFFFFFFFFAA5A08A0D2B0FAEFFF
FB4F2B9A726229A69A74B24C2490401209A0DF28C3C82AC96662A92699588AA9
269D2C130924A2AA6AAAA9AC4002492480A4A34C24AB249B89259B626229A69A
74B24C2490401209A0F22863C92AC9666289A69C588AC9269D2C130924904402
C83FCA6CB24AB29958AA49269662B24927CB44020924904002092490401209A0
882A03CA2AC96662C9A698588AC9269D2C130924904402A8A3CA94B24A329B58
BA8925FA9E07F8FFFFFFFFFFFFFFFFFFFFFFFFFFBFAA162AA8BEFEFEFBEFFDA7
1574574966134B31D504904D976977956433B154134D2CDDA493652221551453
5089049050979177556049B116936732C104105397B977156437B164134D004D
75197E57099614405F5D26105692D9C4D24D2CC5441340655D6611568D01B4D6
6530D5E51840735DA6535D92C55413407F5D46545D8125C59A4C9ECD0413408B
5DE6545D92CDC4D24C37B1941440AE5D86555D96890412482081041248208104
52404B03FCFFFFFFFFFFFFFFFFFFFFFFFFFF5F550B05545B5EFFFDF7FED32A26
9A001AA932A7AC6A0C209F2AA3CA2AC962AA89259B589AA92696666289A69C58
8AE9269D2C13492595440228AACAC6B24AB29958B229269662BA4927CB445249
2591007AAB32B4AC92CC269664A289A59958AA49269662BA4927CB445A69A595
AE426AA59556120920C32A83CC2AC96C62E92696666289A69C588A09279D2C13
69ABAE440228B3CA48B34AB29958B229269662C24927CB44DAAA2B91001A8D29
DF01FEFFFFFFFFFFFFFFFFFFFFFFFFFF5F550B19549C67FFFD7FFF6905124820
81041248208104124820810412482081041248220154DB6562D525585200FD76
195B754966934E92DD04907297D955176331C114134E300124DD6580D525594C
340184DD658AD5D51840DE5D86515E8E01B4DE6522E5C5544EACF986525324A5
04507D97B194575339B1C6544E000984994D7905D6144EACC5E459533901C411
6640E5A55871283545124B4DE1C4524C29B1261248228536534C30D94498DA00
Track 12
FFFFFFFFFFFFFFFFFFFFFFFFFFFFAB8AA182D852EBBFFFEF3FAD4052492280BE
32AC25801C03C92295400289269860820924A98A6A0AA4A2A492EA29A940A24A
AAA0A0822A29A78E0249AAA7AAA22A29A78A0209249040020924904002092490
4002092490400209249040024925890002CD309800720C248B540209249A608A
0926908C4A8AA9A24012A9289158328A29968A928A25A69C0209249040020924
9040020924904002092490400209249040020924904002092490DE2A1DE0FFFF
FFFFFFFFFFFFFFFFFFFFFF7F553114104BEEFDF7DFFB4F2B8B0072CC22954002
0924904002092490400209249040020924904002092490400209249040020924
9040020924904002092490400209249040020924904002092490400209249040
0249258900C28CB08C0072CC229540A20AA9A4A602092AA99E3A4AAAA09A0229
A9A94032EA29A9401A4AAAA282A22A29A78E02A9AAA98A920A24A28A322A29A7
8A220A24A692124AAAA0A4CA0A2490400249258900D28E30C1A207F8FFFFFFFF
FFFFFFFFFFFFFFFFFFAF2A860CE22AA1FFFEBFFFB402092490549208A0F00C93
0920C740B248259040A209269960022929A3402A4AAA9E62A20924AA902ACA29
90A0922A29A7A8024924A692124AAAA0A4CA0A249176720A279276120924A29E
2A6A2A909C7A8A2A904052492280443A8C26801C03C922954002092490400209
A4A2B04A6A2AAA44D2E9A8A7A87A0AA49A628209249040020924904002092490
4002092490400209249040020924904002092490407AAC7080FFFFFFFFFFFFFF
FFFFFFFFFFFFFF55C590401C35F6DF7FEF3FAD3802C8318B5402C9A8A4982A6A
2A908C7A4A2A90AA9AAA2890AE4A8A2AA4409A08A9A09C3AAAA9A09CB2C82590
A842AA2890AE7A4A2AA2A6022929A740A20AA9A4A602C9A8A4982A0A24904052
492280382ACC23801CB34825909A0A2A2B909C7A8A2A90842A0A24A69E72EAA8
A2A402892AA482720AA4986C026928A482922AA8A1A82A4AAAA95C0209A48990
0ACAA9A39A0ACA298B406AAAAAA9A80209249552E318E0FFFFFFFFFFFFFFFFFF
FFFFFFFF7F553174105328FDF7DFFB4F2B904002092490549208A0B20ED30920
C740B248259040A209A6996002092AA992728A2A90448A08AAA09C4A6A28908C
4A8AA9A2402A4A2AA99E92CA229176720A27927612C925A692120A24908A92AA
2791762A4AAA9D44020924952402C8B4C37802C831902C520924904002092490
4062CAA99E44DA8929A7742ACA29A24002092490400209249040020924904002
0924904002092490400209249040020924845C07F8FFFFFFFFFFFFFFFFFFFFFF
FFFF5F550C0DC4106BFFFDF7FED34A2280B82A0C24801CB3482590842A0AA4A6
9E222A29A3922A8A2890500A6A2A90A642EAA9AB9C0249A8A2987AEAAA9440A2
EA2990AA9AAA2890A842AA28909C2AEA2A90984A4A28A982922A2B9740524922
80382BCC24801CB3482590400209249040020924904002092490400209249040
0209249040020924904002092490400209249040020924904002092490400209
249040020924904002092490405229AFA301FEFFFFFFFFFFFFFFFFFFFFFFFFFF
AB8A21847A3BEEBFFFDE7F5A8104124820810412482081A49244009D77984F00
390692452A8104124836D9941348471545154831B114D34E4EB1741548208104
1248208104124820810412482081041248208104124820810412482081041248
2081041248208104924A12018412624101E4184816A904124820D974534D2045
D553524E5185124A4EB514534A2A49E51451284D95D24A32A504124820810412
482081041248208104124820F50635C0FFFFFFFFFFFFFFFFFFFFFFFFFFFFAA62
8820BE96FAEFFFFB4F2B8900EAAE309400720C248B54020924906A8A092690A0
922A29A7A802492790404ACA29A8AAA24A24AA902A0A24A7826AAA28909E320A
A4AC9EAA4A2A90984A4A28A982922AAB9F40126927A770220924952402C823C3
5402C831902C5209249040B2C9A69B40322A29A68A024924AA44628926986082
09249D4002C9A8A4982A0A2491A41289A59858720A27925612C925A692124A24
966202092490400209A480FA07F8FFFFFFFFFFFFFFFFFFFFFFFFFF5F550C25D4
9A79FFFD7FFF690512482081041248208104124820A924114068214614408E59
A412482081041248208104124820810412482081041248208104124820810412
4820810412482081041248208104124820810412482081041248208104124820
8104124820A9241140A8216614408E59A41248542195D454204125D553474915
54532049559553538194945320C504D3522009951555454D0512482081041248
20810412482081B4D1DB00C0FFFFFFFFFFFFFFFFFFFFFFFFFFFFFFFFFFFFFFFF
FFFFFFFFFFFFFFFFFFFFFFFFFFFFFFFF5F550C01C4D373FFFD7FFF69E598452A
8104124820810412482081041248208104124820810412482081041248208104
1248208104124820810412482081041248208104124820810412482081041248
208104924A12018411611401E498452A81445451522565555144816494544F35
055244433DC5D453520D5555511681149454542535145345818492554F310592
4C2EC504125447B904D24C2981041248208104124820A924114058116691EA00
Track 13
FFFFFFFFFFFFFFFFFFFFFFFFFFFF5F550D11F4945EFFFDF7FED38AA5AB588AC9
269670024837C5E003E8309044924A249662628929924813C925A692124A2496
62028839C5F403C829D662D2293290626229A69D9C62E92A80B0538CA0800E03
4924A24462292680C453CCA18010038926986002A8A1C5BC0A88309044B2E829
A6880289A9A484922A28A9B202C9A9A09A2AEA279024126927A648D289299258
1B0E25A64862C9A694002A6931B4023A0C2491A41289A5985862EAA9CE01FEFF
FFFFFFFFFFFFFFFFFFFFFFFF5F550D25E4D975FFFDF7FED30AA49864820920A6
1AC3EF20CB448AC8A8A0A80A8A29908C4A8AA9A2402A4A2AA99E92CA22908A72
AA2791762ACAA99D44028929A77A126927A69CD2093080C26A0CB7851C032928
A288022928909C2AEA2A90AE7A4A2AA20062AB31E116620CA498608209268030
6B8CB985080349248B8A728AAAA2A402C9A9A2AE02E9AAA7A4220AA4A7A40249
AAA2A8AA4A2AA740EAA9A79E7C0249229176BA8A2480566B2CA6C301E0FFFFFF
FFFFFFFFFFFFFFFFFFFFFFFFFFFFFFFFFFFFFFFFFFFFFFFFFFFFFFFFFFFFBFAA
1A02E821FFFEFBFFFED30A2490400209A797667A0927984052492280D4430C29
801CB34825904002092490261AEA29A8B2922AA9A390A20A249040222A28A68A
02A928974022AAA8AB8ACA8AA59872C209268B40020924904002092490400209
249040020924904002092495240248A5C49602C8318B54524925955452492595
5452492595545249259554524925955452492595545249259554524925955452
4925955452492595545209A0A601FEFFFFFFFFFFFFFFFFFFFFFFFFFFBFAA1A2A
E8ABADFEFBFFFED38A24D2447289A9A4841289A598009A6931B9027A0CA49858
8A6927A758BA0A209F16832C20C6408A092698600248AFC5340BC8329044322A
29A68A0249229176628AA49D44B2C825A692120AA4A19E728AAAA092726A2A90
A47AEAA9A64032EA29A9241269A7AB4A736A279140B2E8AAA7A4226A2A974402
28B8C5480B88309044B2C8A8AA9C1A8AAAA49E720A2494220ACA22A2886209A4
8888B2A828A68AA22AAA8101FEFFFFFFFFFFFFFFFFFFFFFFFFFF5F550D05F4D1
77FFFD7FFF69A5924A2AA9A4924A2AA9A4924A2AA9A4924A1201F454624C01E4
1848454915D4544581C454524E15F5124A454D35544A58BD845251530D959252
2F2DB411461B29049057899105D06120894495482CC904134C30019456626E01
C4184831C104134C009196185E001106924811556511544405455551203DC514
5120319594505205255556203D251548110D6591544505455551203955D45520
31959450520585D6F400FFFFFFFFFFFFFFFFFFFFFFFFFFFFAFAA860C7A0BA7FF
FEBFFFB42A8A2590221ACAA2A7A492AAA8A1A86209A48898B228A9A9A802E929
A9408A282A8BAA4A8AAA947E0229229176BA8A2480B45BCCB5801403693894AE
2289A59852624DA4A044022934906682292698009A6F31DC02520CA4E150BA8A
2496624A893591981209A4D040A209A69860028821C6840B4831908643E92A92
588A2925D6448A4A24904203A92698628209A09218632E20C5401A0EA5AB4862
29A69458BB8A6580FFFFFFFFFFFFFFFFFFFFFFFFFFFFAFAA86047A89B7FFFEBF
FFB4922AAB9F408A48A49DAE220920DE12130C20C5401A0EA5AB486229A69458
13A92A91400A0DA4996A820920EA12630C20C5401A0EA5AB486229A694581369
2891400A0D249960820920EF12B30C20C4408A292698004A4831E400220C2491
2C72AAA8AB40622A29A1A40A4AAAAC40722AA8A68AFA09248944DA8929927462
8A24D6864389299258B22925807A524C3A80080349248B9A0A0AABA49AAAAA29
909C9A4D6180FFFFFFFFFFFFFFFFFFFFFFFFFFFFAFAA860EFA2BA3FFFEBFFFB4
12892891400A0D249B608A0926807C62CCBA801403693894AE2289A59852624D
A4A144022934906E8229269800828A31F002920C2499706229A69874420C249A
64820920B418436F20C74042AAA8A0882A4A2A90A6AA4A28A99EAA8AAAA49C2A
0AA0CC18936F20C9629289A5986862C92696666269269664A289259874B20C24
91900ACAA9A39A0ACA2990984A4A28A982922AA9A09C124927CB44B24824803E
2BAA6880FFFFFFFFFFFFFFFFFFFFFFFFFFFFAFAA8606FAA9B3FFFEBFFFB4AAAA
29A18A920AA4A78C02E9AAA7A4226A2A9092720A24A39262AAA89F409248A49D
AED2E92AD6AE222D26800E538C3B800E034924A9446249269698228934915C62
2A29A1446229269D180329269860824927CB401249229176628AA49D440229A2
A09892AAA8A088CA0AA4A2B04A6A2AAAA6B248249D0E0349A4A1446249269D10
0329269960024834C5CC03E8309044724A249698228934915C622A29A1449AC9
6D80FFFFFFFFFFFFFFFFFFFFFFFFFFFFAFAA861072CCBEFFFE7BFF69C5187F03
3506106F8C4177906320152595544F4905125552050515544939751448523D55
15554939551440CF31A6DD41878124525122B16454522C15E5144B4C3905107A
8C91779062201995146B3281941A484539C55A4C348184184832CD0413401F35
E6DE418A81549453ACC5441348A181C4184831C104134C3A590692481289B413
5324ED2412481111F554515381E4D4535481541456494D4595483A21161DF000
Track 14
FFFFFFFFFFFFFFFFFFFFFFFFFFFF5F550E1DA49252FFFD7FFF69159454590194
5264626DC4184831C104134C007D15195B1B1106924816395555534215251548
4F1905D2554F49451448543D059250458134D453524955D450541545D44F2049
24D24E4EC5A4935331B1E6544CA4C504906091D9B59162203915536B3281A41A
484EC5B49A53208506926420C984134B31C5A4136220DD04934C300144596480
6DF4184831B1E4544C3B5D45D25631D9D41540B845A6D84696816412E500FFFF
FFFFFFFFFFFFFFFFFFFFFFFF5F550E0DA49673FFFD7FFF69B5D35524ED04504A
8F390491653A09065252003DF518461059A61361208984545254813491544551
5595544E590412554F8134D4534E5195945355150592483B050510588F890491
5331B1E6944CA4C5A4935332B1E614406B3DC612448C8114134C30C104D05C8F
D9049160202905505F8F0105116220D114134C0071F618621339065254552545
15484139451448473D059250410DB51448543D05525345397559FF00FFFFFFFF
FFFFFFFFFFFFFFFFFFFF5F550E21B45D69FFFD7FFF69259245573D2515512025
E514484C25259454414995154820F5D4534F3E812491483B5D451240DC4546D9
4684812492454539455551528134D453524955D4505425F5945320F5D4534F3E
812491483B5D451240F045E6D9468A81741549AC89049348202106D24D30C904
1340024986DA46918114134B4EC5B4D355246D15934D5D01649364B26D441848
225934D453524955D45054811494534F518554515281B4DED600FFFFFFFFFFFF
FFFFFFFFFFFFFFFF5F550E11A4514AFFFD7FFF69551540AA3D26D94491811413
4B31EDE4144B570164DB639C4D741848220D25124B310124DC63A64D24D94C2C
C1C4D24C3001D4DF63B04D441848225944D4532065F55455205D159453548114
94534F518554515281C4545242491594545981845244595954D454203D251548
113965D15329FD04524422ED741549005504996E132906D270285D45124B31A5
C49A48598904126220C514134C00910419711351965DFB00FFFFFFFFFFFFFFFF
FFFFFFFFFFFF5F550E25B41C61FFFD7FFF6975D553521105124A116565515153
81F494542045E494454FA5F413481189B4D3552401F49464BC6DA41848C3A174
15492CC594126B2265251248888174134C32C10450569219B7116220D104134C
00A12619501F3906124A454D35544A4BBD14D44D2D3D6594512F41C5D45354CD
C4524C2CC984D34B47495554514EBD0412482081041248208104124820810412
482081041248208104124820810412482081349CD700E0FFFFFFFFFFFFFFFFFF
FFFFFFFFFFFFFFFFFFFFFFFFFFFFFFFFFFFFFFFFFFFFFFFFABCA2180B46AEDBF
FFDE7F5A59B79062205D45126B22C1241248888144134C3001545B63E02DE414
6B4E91161340C635A6DE42918114134B4EED7415495BC56453570045D7187D0B
2106D24C30C9041340F13506DA438E81C4545253510552504C3105D2554F4945
D4542025E514484C2525945441499515402939A6DA438A81E4146B3181141A48
96E96419482245E4D453205DF59454444D0552524E816454524C15E592483A49
26134E2CBD1535C0FFFFFFFFFFFFFFFFFFFFFFFFFFFF579543052984D07FFFDF
7F5A8124525345395595483A2506505290C17591632011551453455155144841
8174D5535211059251523DD5144854215514484C2525945441499515405441A6
D7458C8114134C30C104D06190117611612089E454554D09559454203D651448
573D2515512051F51448421505125145315514554511F513481289B4935331E9
E4544CAC391513693101A41A64895DA418484EC5D49A4C20A906925331ADE614
48A1F91535C0FFFFFFFFFFFFFFFFFFFFFFFFFFFF5795430129C5D87FFFDF7F5A
C984134B32E1C4524C31E984184834C9041340343946DB438C8114134C30C104
90508EF9F6905331B126934E4EC9C49A53006DE518720F05069252ACC5049267
20A1849253A5C594D26933D99412693101649763D23DA418484EAD36934DA629
055268203925136B28CD6493694AA5445A4C0025E618770F2906925331ADE694
4C202106124D31D90413409D3966DE43818194146B4EC50492672039251348A3
652735C0FFFFFFFFFFFFFFFFFFFFFFFFFFFF57954306E9B4D67FFFDF7F5A8124
194832E1C4524C31E984184836C124134C00E50699631705065252AC39151348
9E81E41440CC4186D9458F8114134B499116D34E5791B4554C36750550779089
76516420C5C452523B5D45D25631D9D41540E541C6DA458281941440EF4166DB
454EB1E654693101A41F64C05D84184834C114134C00791419561B3906D2504F
492555514351055250205DF5945444819494532051855451203195945052E525
3AC0FFFFFFFFFFFFFFFFFFFFFFFFFFFFAF2A8704D2EBBDFFFE7BFF6905D24C00
EDE6187C0F3D06524C2C25B5D355246D15934D5DE9645952A5C5B4536735A5B4
D35524ED04107B8EE9F790622025455A4CADB1E6944C208506D26320C5C45252
A4C5B4D355246D15934D5DE96419489DC914534A3B25B5536732D994D24E5791
B413401F3D4610448A8194146932B5C69A533281141A488F8114134B499126D3
4E5791B4554C3675A59365207546934C29ED94146931EDD4194D37A5C458D100
Track 15
FFFFFFFFFFFFFFFFFFFFFFFFFFFF55F590410969F5DFFFF79F56208104124820
81041248208104924A12018416624401E498452A810412482081041248208104
1248208104124820810412482081041248208104124820810412482081041248
2081041248208104124820810412482081041248208104924A1201841A624601
E498452A81441552494D051254523D7594544135059254553935154849390552
4C302D059250595155D4542081041248208104124820810412481BBD0DF0FFFF
FFFFFFFFFFFFFFFFFFFFFF5F550F09949477FFFD7FFF6905924A1201F495612D
01E4184816A904124834C104134C204955545320152595544F49051255520505
15544939751448523D5515554939551448208104124820810412482081041248
208104124820810412482A4904106886C10490632059A4124820D104534C3081
6454524C150592484589C492514CB15494542C31E51448208104124820810412
4820810412482081041248208104124820810412482081F456E900FFFFFFFFFF
FFFFFFFFFFFFFFFFFFABEAA18332DAEBBFFFEF3FAD4002092490707A69A69770
820924952402483DC49002C8318B5402092490400269A2A19E822A2BA9923A0A
29AA40020924A28262AA28908A720924A28ABAAAA8AC588A29279C60B2082490
40020924904002092490400209249040020924904052492280544A6C29801CB3
4825955452492595545249259554524925955452492595545249259554524925
955452492595545249259554524925955452492595006A1AE0FFFFFFFFFFFFFF
FFFFFFFFFFFF7F553D345056FFFDF7DFFB4F2B904002492589000ACF30990072
0C248B540209249A609209269092320AA4A2A4EA29269A40A20AA9A29C02092A
A992728A2A9044622A29A1A40A4AAAAC40126927A770226927914022EAA9A2A6
02C9A9A7A802092495240248A4C36802C831902C520924904002092490402A0A
ABA4A6A24A249D8E7A8AAAA740AA292698400209249040020924904002092490
400209249040020924904002092490400209A4C70A07F8FFFFFFFFFFFFFFFFFF
FFFFFFFF5F550F21841E65FFFDF7FED34A259554524925955452492595545249
25952402E8A9C49802C831908A922AA8A98A0289A9A49C2AEA25948A9A6AA894
B07A09A5A2A61A2A25A55E5A68238C36520820AF12230BA0C34012892A915892
092698600228ADC4DC02883190628209269800222D31BC00220C249122AACA22
A8880A8AAAA2407A8A29A240622A29A1A40A4AAAAC407A4A2A90221ACA22A98A
0A8AAAA24072AAA8AB40622A29A1A40A0AADE901FEFFFFFFFFFFFFFFFFFFFFFF
FFFFABEA218252C2E8BFFFDE7F5A810412482081A49244009575984E00390692
452A8104124D30CD041348504995945354812452445005E5545243816454524C
150552515249F594541689B493533891B493482E3195945020815494543D89B4
535152ED24124820A9241140A61DC613408E8164914A20810412482081041253
4EF524D24E4C39A553514E110512482081041248208104124820810412482081
041248208104124820810412482021E43AC0FFFFFFFFFFFFFFFFFFFFFFFFFF7F
553D94107EB5FDF7FFFDA7955459FD04524422ED74154900F1969860002906D2
70285D45124B31A5C49A48558904526820CD54134C0051971863002906D27028
5D45124B31A5C49A48438904526820C904134C0079979865002106524C31C104
50428A210710612089649153455D05125349092555505265059253413555D44F
204924D24E4C91A4135324B1361C4A4C91C4924D2901D49362D2014418482259
D454505825D554554D81E4D46C0A033CF0FFFFFFFFFFFFFFFFFFFFFFFFFFFFFF
FFFFFFFFFFFFFFFFFFFFFFFFFFFFFFFFFFFFFFFFFFABEA2180D2E2ECBFFFEF3F
AD4002092490400269A3851E1A28208E24020820800002082080000208208000
0208208000020820800002082080000208208000020820800002082080000208
2080000208208000020820800002082080000208208000020820800002082080
0002082080000208208000020820800002082080000208208000020820800002
0820800002082080000208208000020820800002082080000208208000020820
8018321FE0FFFFFFFFFFFFFFFFFFFFFFFFFF7F553D54504E39FDF7DFFB4F2B90
40020924904002092490549208A0F30EF30920C740B24825904002C9269B7202
E9A8A2A80229269662DAC92996AE020924904002092490400209249040020924
9040020924904002092490400209249040020924904002092490405249228050
422C28801C03C92295400209249B6EAA09A4A87A4ACA29AA5042C9A996624A49
25A99C220AA5A9525A49A694400209249040020924904002092490400209A4DE
A006F8FFFFFFFFFFFFFFFFFFFFFFFFFFAFAA8702CAABB7FFFE7BFF6905104000
05061040582166914A208104524D31C17413484625C5545120894495482CD104
134C30817413484625C5545120894495482CD104134C30817413484625C55451
20894495482CD104134C30817413484625C5545120894495482CD104134C3081
7413484625C5545120894495482CD104134C3081A41348201995145345812492
5422B114134B4EE144D24A22B9C454524289C4524C20810412482081B4D8F500
Track 16
FFFFFFFFFFFFFFFFFFFFFFFFFFFF5F551025B41E7EFFFD7FFF6905D24C00EDE6
187C0F3D06524C2C25B5D355246D15934D5DE9645952A5C5B4536735A5B4D355
24ED04107B8EE9F790622025455A4CADB1E6944C208506D26320C5C45252A4C5
B4D355246D15934D5DE96419489DC914534A3B25B5536732D994D24E5791B413
401F3D4610448A8194146932B5C69A533281141A488F8114134B499126D34E57
91B4554C3675A59365207546934C29ED94146931EDD4194D37A5C458D100FCFF
FFFFFFFFFFFFFFFFFFFFFFFFFFFFFFFFFFFFFFFFFFFFFFFFFFFFFFFFFFFFFFFF
550511407A45F7DF7FEF3FADAA6A4AA8A2A402E929A340BAEA29A9889A0AA4A4
9C02C9A8A4982AEA2790241269A7AB74BA8AB5AB488B09A0C314E30EA0C34012
492A9158928925A648224D2497984A4A2891588A4927C6408A09269860D2C932
90449248A49D9822692791408A2828A6A42A2A28A2B202A928AC929A8AAAA92C
1249A7C3401269289158924927C4408A49269800124D31F3003A0C24919C1289
25A648224D2497984A4A289166721BE0FFFFFFFFFFFFFFFFFFFFFFFFFFFFAB0A
A28254A2EBBFFFDE7F5A31C6DF408D01C41B63D01DE41848454925D553528144
955441410555524E1D0592544F554555524E1505D0738C6977D0612089549448
2C1995144B4539C512534E01841E63E41DA418484625C59A4C20A50652514EB1
16134D202106924C33C104D0478DB97790622015E5146B31D104526820310652
4C30C104934E968124924422EDC414493B89045244443D55D4542039F5145520
15855552535125924E8845073CC0FFFFFFFFFFFFFFFFFFFFFFFFFFFF57154401
A905DF7FFFBDFFB462E92A9662B289259C00D24D31F8003A0C2491A41289A598
58628A24D2447289A9A4841289A59800624E31FD00728AB598748A0CA498588A
6927A758BA0A20EC142328A0C34012892891588A0920F114732820C440A20926
98006A6831AF02220C24912C7A8A29A240622A29A1A40A4AAAAC40722AA8A68A
FA09248944DA89299274628A24D6864389299258B22925804A5A0CAD800E0349
24A94462292696987AAA7380FFFFFFFFFFFFFFFFFFFFFFFFFFFF571544066974
D17FFFDF7F5A8114934C3001C45463F81D649948111915145541310592514931
551448454925D55352590452514EF524D24E4539B593482031E5544F22EDC494
533A010650588DE1B6906320054514512005059253455D05D2554F494514406C
3526DC428C8114134C30C10410668D31B7106120896451514E51559454203955
D455205DF594544481F4945420495514555549E514483DF5D4934F204924D24E
579104D06A8DC57438C0FFFFFFFFFFFFFFFFFFFFFFFFFFFF571544026935D97F
FFDF7F5A91449A482E3195945022B1141340332D2657408F8114134B31EDE414
4B5701E4D3629005C4184831C104134C00E9B5986601590692484625C5545120
4924D24E4C91B4934816B9C45452428134D4534E511554524E4D0592544F3DD5
1448463D25954422ED7455694EED241248165DF59454444DE592480005B71869
01110692481619559553435195D4534E8184524441594414512C811411511615
C5545154453530C0FFFFFFFFFFFFFFFFFFFFFFFFFFFF571544072964D37FFFDF
7F5A59B79062205D45126B22C1241248888144134C3001545B63E02DE4146B4E
91161340C635A6DE42918114134B4EED7415495BC56453570045D7187D0B2106
D24C30C9041340F13506DA438E81C4545253510552504C3105D2554F4945D454
2025E514484C2525945441499515402939A6DA438A81E4146B3181141A4896E9
6419482245E4D453205DF59454444D0552524E816454524C15E592483A492613
4E2CBD1535C0FFFFFFFFFFFFFFFFFFFFFFFFFFFF571544032925DB7FFFBDFFB4
2A8A2590221ACAA2A7A492AAA8A1A86209A48898B228A9A9A802E929A9408A28
2A8BAA4A8AAA947E0229229176BA8A2480B45BCCB5801403693894AE2289A598
52624DA4A044022934906682292698009A6F31DC02520CA4E150BA8A2496624A
893591981209A4D040A209A69860028821C6840B4831908643E92A92588A2925
D6448A4A24904203A92698628209A09218632E20C5401A0EA5AB486229A69458
BB8A6580FFFFFFFFFFFFFFFFFFFFFFFFFFFFAF2A8810DA2FBBFFFE7BFF692513
4E2CC984134B31C5A4136220D124134C00D1E4186D0F3106524C30C104134042
39E6DB434EC5C49A4C3A3925136B4E01B49563C83D1418484AB11613489E8184
124A4E9516534AA7CD64534AA4C504905D8E49F790622039B5DA4C3699A61448
A181E4944CACA134934DA6299512693101949863DC3DA418484EC5B49A533281
84184834C564134C0075E698790F05065252AC391513489E81E4944C208D969D
D400FFFFFFFFFFFFFFFFFFFFFFFFFFFFAF2A8808D2A9AAFFFE7BFF6925125122
81141A4836C114134C00F9C49875012906D270285D45124B31A5C49A48438904
526820DD04534C3001041563E00524194832E1C4524C31E984184834C9041340
683186DE408E818454514111559454204D559550523D55155549395514409931
26DF4092C524134B31D1C4924D2CCDC4D24C2CC944134B30E964194822211594
53473515945320319594505205255552413925924E9689649148007D5654D100
Track 17
FFFFFFFFFFFFFFFFFFFFFFFFFFFF5F55110D94D760FFFD7FFF6905926420C984
134B31C5A4136220D904934C3001941B648E5D14184849B1E6544C2079069253
0031071966173D06524C2C25455A4C3B5D45D25631D9D41540DD4126DA459181
14134B49ED7415495BC5645357009507196B170906525200BD07996D1739C59A
53A5C504907E900177116220D104534C3001E45164586DE41848433D25955445
0D451548418174D55352110552524E814415524581C4545242499597E800FFFF
FFFFFFFFFFFFFFFFFFFFFFFFAFAA8810420EBDFFFE7BFF69059A600001E41840
A6091610408E01B49B60640124994C37B114534C2CC524134B36B134134B31D1
04107882B905906433B124D34C2CD1A49365225944555042315514482081F494
51204125D55347491554535349241240060D86174092CDC4924C33B184934E96
891413483D81D454505421555453415195D4505381445555543D2595483B01C4
D2607A0124D94C2CC934134B31C9A4936522C904524F201DD555C500FFFFFFFF
FFFFFFFFFFFFFFFFFFFF5F551111941059FFFDF7FED32A28A9B20228A5C8C4DA
883190628209269800FA2A32B636220C24912C72AAAAA6842A4A2A909E320AA4
AB9E928A2890A87A0A24A18A0269A8A7A492AAA8A1A82A8AA89F409248A49D9C
8A4927A76262CDA998488B0920C122B36B23C540722AA6D664024935909C8A69
35A7400A0D24C94092092796628A4927C440BA092699600288B2C800DBE83190
6262C9A99876BA8AA4AD62B2A92B80708B4CB18D2C03C924CA01FEFFFFFFFFFF
FFFFFFFFFFFFFFFF5F551125845D72FFFDF7FED3AAAAA2A69A0A24AA902A0A24
A7AA6A4AA8A2A4126927807A1A8C36802CD349B2986A62692696606269269800
2A6AB0DA00922CA69C00526CB0DD00B24C24AA904A6A2A90A092EAA9A3A40AAA
2990929A0AA4A19E822A2BA9923A0A29AA408A29A79B6C0209A5A1520249A8AC
401AEAA9A6A0AA6AA8A7987A4A2A90867A4A2AA89E922A28AA927ACA29974402
48B2C1780348B298680228B9C17C0348B29958B2A925F5011EF8FFFFFFFFFFFF
FFFFFFFFFFFFFFFFFFFFFFFFFFFFFFFFFFFFFFFFFFFFFFFFFFFFAB2A22809202
EFBFFFDE7F5AED7415493B0194D2630E4164994E82819414404F3D86114496E9
4418482221951455204D2455515455259553168144D553200DF594535425E554
55458124D24E410104D6632241E4544CAC3925136931E9E4944CAC3905D05A8F
B104116320C504134C300134D76336412418484A01D4D763404184184834C504
13409C3D86D8448E8114555549510552504E1105D2514F81245450432D051255
4F81D454514E5DD63FC0FFFFFFFFFFFFFFFFFFFFFFFFFFFFAB2AA282322AEABF
FFDE7F5A8964D1554F494514484939051253490925555052650512483DF5D493
4F204924D24E57910410779151B6116120896451514E51559454200DF5945452
15351455493DE514483DF5D4934F204924D24E579104107C9179B69162205D45
126B22C1241248888174134C32C104904092A1B6516420C5C4925331ED741549
5BC564535700D924996C1B11069248160DF5945452153514552005E5D4535421
55945420ADB735C0FFFFFFFFFFFFFFFFFFFFFFFFFFFF575544016515DC7FFFBD
FFB4AA0A20D51E936CA2C8408A89A59876728AA5AB00B2ED31CE263A0C249186
1289A5980012EE31D326926C2696606269269800EAEF31D826220C24912C22EA
2990B27AAA2A90AE0ACA29AA400ACAA9A7A842AA28A940622A29A1A40A4AAAAC
404229A2AC2C2A6A2A909E920AA4889CB2E8A9947E0229229176BA8A24802A82
4CB7891403693894AE2289A59852624DA4AC4402093190628A09268048828CB8
8928CBAE7D80FFFFFFFFFFFFFFFFFFFFFFFFFFFFAFAA880C4AC9A4FFFE7BFF69
75D553521105124A11656551515381F494542045E494454FA5F413481189B4D3
552401F49464BC6DA41848C3A17415492CC594126B2265251248888174134C32
C10450569219B7116220D104134C00A12619501F3906124A454D35544A4BBD14
D44D2D3D6594512F41C5D45354CDC4524C2CC984D34B47495554514EBD041248
2081041248208104124820810412482081041248208104124820810412482081
349CD700FFFFFFFFFFFFFFFFFFFFFFFFFFFF5F551109949668FFFD7FFF690592
484D15E5545522E9941840494106D7458E814454514C15455551200505D2554F
494514484649F55453205185545120319594505205255556005105995E173106
524C30C1041340874146D845848124925355352554515281F49451205DF59454
448144D55320095514484415C55451541545D44F204924D24E4EC5A4935331B1
E6544CA4C504906A9025769162203915536B3281A41A484EC5B49A532085E657
D400FFFFFFFFFFFFFFFFFFFFFFFFFFFF5F55111D94D341FFFD7FFF6905124820
810412481B2DF4D0400171241140000104104000010410400001041040000104
1040000104104000010410400001041040000104104000010410400001041040
0001041040000104104000010410400001041040000104104000010410400001
0410400001041040000104104000010410400001041040000104104000010410
40000104104000010410400001041040000104104000010410400001C490F900
Track 18
FFFFFFFFFFFFFFFFFFFFFFFFFFFF552591403CC5F7DFFFF79F56035926D24454
65055551200505925355352554515281C45450521D55945420518554504E8144
1348543D055244453945D444204125D55347491554532085249148005547187D
035906504485D5371061228104124817054514513DC5041248154D5595505449
15D45054F5241348204DD454554C519514544C65D5D34C208164115149599514
5145F544134812FD0492483B0505904985D93790653A2916D46A04350DF0FFFF
FFFFFFFFFFFFFFFFFFFFFF5F55121DC41655FFFDF7FED36A269858C24927CB44
B22828A288924824806A3A4C3782249B89259970622926990052EA30E208B20C
2B915612292B917A1269279D188B69A69A600288AAC39C23282AD6B0222D2B80
C43A0C3B82148B8A35AD428B49269A6A0228B3C3B22348B299588A69269662A2
4927CB44F228A28E26FAE82AA99E72EA288F20EA48A2871C0209249040020924
90400209249176C24AA49544DA292B917A1269A7A8001AED2C8501FEFFFFFFFF
FFFFFFFFFFFFFFFFFFAB4AA2815882EEBFFFDE7F5AD1141A6522355594535589
A4536200A555D87D03112652514E51559454201155D45152155514484F190512
5149196554524355C51455598104D24431B124134B33B14413484F4905524D3B
8104524D3D2115945444153515551281F4134822ED4414408915C6DF409C1185
584C30CD04134B31C134934C2CC504D34C34B114134C33D9C4524C30CD841340
931536104188C504534C3501945B61061184156BB69D8637C0FFFFFFFFFFFFFF
FFFFFFFFFFFF7F5549845067BBFDF7DFFB4FABC3B623E82AD6AE222D26805A3B
8C3B82108BC926986002E8B6C3BA236828D686222D2680B63BCC3B822C13C922
AB8A922A2B908E7AEA29A2580229ABA7AA022928A98A0269A8A7A492AAA8A1A8
92482480CA3B0C3C82108BC926986002E8BFC3282A48B299589A09269670D2C9
32912C9AAA2AA1A8922AA8A1A8924824801842CCA382249B89A5996062292699
000A09B1910A520CABD6B20A2D2AD6B0D2092BE96A07F8FFFFFFFFFFFFFFFFFF
FFFFFFFFAF2A8908E2EAA6FFFEBFFFB44209A7944C8B09269DB062ED3594B04A
49A7AC58B30DA59C52322D269874CA8AB5D750CA2A2580862BEC2082108B0926
9A600248BDC21022082BD66C4309A7944C8B09269874C28AB5D750C22A259DB2
62CD3694724AC9B49860D2292BD65E4329AB9400A2AFB08408422C2698688209
208E0C538820AC58B30D259C52322D269860D2092BD65E4309AB9474CA8A35DB
50CA2925D3628209269DB262ED3594B22AAE7280FFFFFFFFFFFFFFFFFFFFFFFF
FFFF552551428D69F6DFFFF79F56AC65A55356AC4505904D88A15490655889D4
92485989D493483BE9C4584C33D50413404A2126534151B186556959E9A45854
AC69155A4C32D15413408721D653419689041248208104124820810412482081
0412482079145147137D7495544F39759447107524D1430E8104124820810412
4820810492483B6125524B22ED9495483D89B45354004586D84F052116934C34
CD04D06B8819551061228114D14F8A6D0FF01FF8FFFFFFFFFFFFFFFFFFFFFFFF
FFFFFFFFFFFFFFFFFFFFFFFFFFFFFFFFFFFFFFFFFFFFFF7F5549041047B3FDF7
FFFDA7154B32D1A4136122495494535415255544200DF55453505535D4534C3D
259544204125D5534749155453203955555342152515483E8124D24E490124DD
60C30124994D2CC904D0788325071067492116134C30C1C4924C30C1041340EC
0D261D4088C584134E000944187A034966134B33C9C4524C32B124D34D2CC514
134B31D104505084A537906433B114934C2CD9A493652279145147138134D453
4D41551573D403FCFFFFFFFFFFFFFFFFFFFFFFFFFFAF2A890A62CAA2FFFEBFFF
B44A0920930C5B8820C46282892698007ACA308608C28A35DB50C22925D36282
09269874C28AB5D750C22A259DB262CD3694724AC9B498608249A7AC587B0DA5
AC5202282BC31A2208B19860A20926800633CC2182B062CD3694704AC9B49860
8209269DB062ED3594B04A49A7AC58B30DA59C52322D2698608249A7AC587B0D
A5AC5202A831C3202288B198628209268050334C2382380B0AB1986482092696
62F2297680FFFFFFFFFFFFFFFFFFFFFFFFFFFF552551400C49F6DF7FF84FABA1
9E62EA29A940824AAAA2A62ACA29AAA602A9A9A0A842AAA8A682A22AA9A1A602
89AAAAA87A4A2A903C82A823894402282CC2D41B48B29958B289269660D229B0
A05883C9B399608209269D04D349329B589289A5986402A82DC2D81B6828D660
D2E92AD66002A82EC2DA1B48B2986402E832C2E41BC832918A728AAAA2A402C9
A8AA9C1A8AAAA49E720A24A28A9A2A29A98A220A249D44D2C932809E236C3E93
E006F8FFFFFFFFFFFFFFFFFFFFFFFFFFAF2A890CE2ABAEFFFE7BFF6935134C30
B114134D30C1C4524C35C1041340B219E6114188C504534C3001A49B614C1124
594C3201849E615111649948135195155445811414484C154515554549051255
4F81445551523595945341515514485049F594504C15D5144821492412400D1D
66154192CDC4924C33B144934E968934D453524955D450548124D25022810412
48115D25D5534E1D25D255004D741858043506104A87C146906433B19498EF00
Track 19
FFFFFFFFFFFFFFFFFFFFFFFFFFFFAB6AA282FE3AE9BFFFDE7F5AD5A493652245
7495544F39751448208104124820810492445449951548554D95945347814415
524581D454554C519514544C253554505425F5945320511594504C1505925045
31F5D4552085241240782DE69A41812DC55A4C9EC504934E8129C55A4C9EC504
934E8A29C55A4CA10DF51453ACC504D0608BE166906436B134D4534C0164D962
B91924D94C2C954613693699A6144B31D944DA52007DB6986E06D1C434C0FFFF
FFFFFFFFFFFFFFFFFFFFFFFFAA9A28A09F46FBEFFFFB4FAB82249B89A5996062
292699588A2926966662692698588A49269D2CC34A249544CA4AA49E44DA4927
C6629AA9269800522A31CF0A8A8A35AC4CCB0AA0B812FBACA0C0B0C28AB59868
F26C269846934927C96662092696B0C28AA59862D24930ACB0D249B299588289
A5986C02E8AFC4402B48B1A858D32AB49864A2A92680784B2CB4822C13092490
40020924904002092490400209249040F228A28E26FAE82ADB8407F8FFFFFFFF
FFFFFFFFFFFFFFFFFFBFAA2632E829A2FEFBFFFED3CA32A54C5B0AA0D416DBCD
A0A19E628A359900C26D31DE0C526C29D6620A6DA8A798622D2680945B4C3883
04534A27C9629A4927C196D249B2986802C8BCC58E3348B2986A626926966062
29A69A74B24C2490400209249044D249B298680288BDC59833A831800E620CBA
8324B34927C966924927C962924927C964BA4927C9628A4927C962A20920A518
8BEE20C9666229269858B24927CB44F228A28E260229B3F701FEFFFFFFFFFFFF
FFFFFFFFFFFFFFAFAA89047A08B8FFFEBFFFB492EA29A78EF208A28E247AC821
904002092490400209249040126927AC445249A49DB212A92791768A0A20E312
1BAD20C4629289A69900F22E31EE0A926C2696668289259C74B24C248B884ACA
AAA4882A4A229100422FB1F00AC28A35AC4CCB0A20FB121BAF20C5B2620DA6D0
6282492698001A4831F30A926C2696668289A59864020823C5E02BC832AC447A
49A4AC44EA49A49D74622CA6996A82092091148BED7B80FFFFFFFFFFFFFFFFFF
FFFFFFFFFFAB6AA283BE2AEBBFFFEF3FAD867AAA29A8AA1AEA29A69E920A24A8
A42A6AAAA29CA26A2A908EAAAAA8A9A602892AA48A02C9A9AA9A12AA28A9403A
2AA8A68A02C923883A92482480D4624CBA83249B89259B686209269D020B8A35
983C9B09269860D249309D24B389A599588A492680EC626CBA83A0620D269DA2
620D2680FC628CBA83248B4926802463ACBA839C62ED35946C4309A7944C8B09
269860822925803863CCBA83189309A69CA4BA1AE0FFFFFFFFFFFFFFFFFFFFFF
FFFFFFAA9A68A08FC2FBEFBFF79F56F21514156B589D9615403029665F418A45
C59A56A1C524134D3501A49362FA15C4584C37C10413404629C65F4192CDC412
4C2CC56413406F29F65F4192CDC4D24C30B114934C2CC514134B33B134134C2C
C524934E966125D24B226525524F22EDA4136331CD54134C00E5A518400645C5
1A56A7650510688A056450605861C55A4C347936134CA3C9A4936433B104134B
5861C5524C31E924185658E924D94C2CDD0EF0FFFFFFFFFFFFFFFFFFFFFFFFFF
BFAA2642C835C5FEFBFFFED30A26806263ECBA839CAA8A35A774428A359874AA
8A3598743A8A3598004A8E31EC0E0A2A26D682D249A89858134AA7A162626D28
9D888A8935A20082A831F20EB24C248B8EAAAAA8A9A602892AA48A02C9A9AA9A
12AA28A9400209249040020924904002092490400209A488867AAA29A8AA1AEA
29A69E920A248944DA292A91400209249040828AA9A0B22A4A2A9044DA092A80
5C6A2CBD83249B89A5996A62C9A9ED01FEFFFFFFFFFFFFFFFFFFFFFFFFFFAFAA
89087ACBA0FFFE7BFF69C5124C2CC5641340AE292690418A45C59A56A1C52413
4D3501B49E620519649948208104124820810412482081041248208104924711
7534D1475749F594534779045147123DE41048208104124820810412482089B4
135622BD24D24E5989D493483B4505507D8A1D64106231C944D34C0051B41850
064936134B36D1C4124C3A0526156B307916134C30C1A4936052E984584C30C9
041340592D469A4192C5541EFA00FFFFFFFFFFFFFFFFFFFFFFFFFFFFAB6AA284
7C5BEDBFFFEF3FAD68D2C9329122422A29AAA60209249084AA8A29A6A6924824
80786A6CBE8302CB8A359C3C9309A6D16402C8A8C6EA3BE828D68E222D2680C4
6A0CBF83249B89A5986A62292B9D2C3B4A249040020924904002E9ABAFBEFA4A
2480F86A4C2084249B89A5987062292B9D0813C9A2A3AA2A6AAAA9409248A49D
9C02C8B0C6084288319960CA092680206BEC20841893292698600228B5C61842
48B299589AA92696E43A1860E0FFFFFFFFFFFFFFFFFFFFFFFFFFFFFFFFFFFFFF
FFFFFFFFFFFFFFFFFFFFFFFFFFFFFFFFAFAA89007A49B0FFFE7BFF690592483B
6945924E8A0587925624A5B45A4D372116134C30D504506F8841559056AC0187
925624A5A45363005D87185E054936134B33C1C4124E3A592692454D55C51455
4941C554561289041079880956906433B134134C2CC5241340F921C658419661
25924A226525524F22EDA4136331CD54134C00359498650545C51A56A665A593
6251B1A6556831C944534D005D941866053116D34D30C1041050896DB614D100
Track 20
FFFFFFFFFFFFFFFFFFFFFFFFFFFFBFAA284AE8249EFEFBEFFDA795483A051513
49AC890492483A05251349AC8904124822E914D44C24B1261248208124924E41
D144126B22810412482089A453503591C49A482081041248208904905E831D04
905624A114534AAC893496483A6945124A32A5C49A486489A4935624A134534A
AC898496483A6945124A34A5C49A48738904D062832104906436B174134B31C9
C4924D2CC98413409E0D961040850D45144A33D994124B421185D258920304FE
FFFFFFFFFFFFFFFFFFFFFFFFFFFFFFFFFFFFFFFFFFFFFFFFFFFFFFFFFFFFFF5F
551401645B45FFFD7FFF6995954E962125124820810412482089B4535500DDD6
9843082956156B348526134C37E104D0708D45841052ACC1A45355ACC1049072
8D598490605901445D63192114156B51911613400339B6114292CDC4524E2C65
459A4C3A59265244593D5515484C3D3555512C814415524581E454554D095594
54205D15D454204924D24E4E550550438E7184106232C184134C00D1E4984708
59A69365225994D55355811492D300FFFFFFFFFFFFFFFFFFFFFFFFFFFF5F5514
15641E6CFFFDF7FED30AA09520630A21C5846A6DB5A0640A4DA69864B20920A0
206B0A21A458438AB49874128AB59864D2292899588B292680A082CC29841413
AAB5D586922934996292092780CA82EC298490620D29D262D24928D6629249A7
A164622DA69A00AA0B32A810524CA8D656234AA6D0648A69269800520CB2A810
428A35A4488B4927A1588B49269D889289B5986E024833C8A44248B1A15A5B2D
2899429329A6996402E8B2F601FEFFFFFFFFFFFFFFFFFFFFFFFFFF7F55511490
6934FDF7FFFDA7D5554939C5124843052555512051F514485449951548411D15
54524E8124914800F9E4D8470841C51A54A4C504505B8E818490653A11261255
594155144811C5049244463D2515484181E4545157817454504D1515114822ED
94944E8A25C55A4CA1C904134C3401B4976325214499484D15E5545522E99418
408B39A6124241B1F61A4A4E9D16134C30C1941240A139B6124242B1F61A4A4E
9D16134C30A554DA65E003FCFFFFFFFFFFFFFFFFFFFFFFFFFFFFAAA2C820EBA6
FBEFFFFB4FABD7209B0A21A458438AB498741A8AB59868D2292899588B292680
7E838C2A84141BAAB5D58492293499629A892680A883AC2A8490620D29D262D2
6928D662A24927A164622DA69900220F32AB10526CA8D656234AA6D0648A6926
9B00CA0FB2AB10428A35A4488B49A7A1588B89269D889289B5986E0228A1C8B0
424831A25A5B2D2899429329A6997002C8A3C8B2420829D690222D269D88622D
269B740A4A26DD4806F8FFFFFFFFFFFFFFFFFFFFFFFFFFFF55459140965DF5DF
FFF79F5628C504936941A504906F8EB184D050ACBD869253A7C504534AA5A114
134C309916544AA5A114134CA609951240DE39D6124244B1E654692805655A4C
30C104534AA5A124946931C104534AA5A134946931C1941240E439E612428D01
04D063342114944CAC0515934E42C9C49A5031E934944CAC0D15934E44C9C41A
51310104D1633E21A45850ADAD16944CA1C914534C3201B4D2633F2184146B48
9116934EFB350DF0FFFFFFFFFFFFFFFFFFFFFFFFFFFFAB8AA2838C93EFBFFFEF
3FAD588B2926805C8A4C2B841423AAB5D5849229349962A2092680868A6C2B84
90620D29D262D28928D662B24927A164622DA699009A2A32AE10528CA8D6561B
4AA6D0648AA9269800422BB2AE10428A35A4488B4927A2588BC9269D869289B5
986A02C8ADC8CC42A83180000208208000020820800002082080000208208000
0208208000020820800002082080000208208000020820800002082080000208
2080B4221CE0FFFFFFFFFFFFFFFFFFFFFFFFFFFF571545031966D77FFFBDFFB4
AA8AB5AA488B49A7A0588B09269D829289B598620268A7C780424831A15A5B4D
2899429329A6986802C8AAC782420829D690222D269DAA62AD2AD262D24928D6
62924927A164622DA6990032EB31A110526CA8D6561B4AA6D0648A29269B000A
ECB1A110428A35A4488B49A7AA58AB8AB498741A8AB59868D2692899588BA926
80227B8C28841423AAB5D58892293499628A092780587BAC288490620D29D262
42CE7480FFFFFFFFFFFFFFFFFFFFFFFFFFFFAF2A8A10BAA9A3FFFE7BFF69059A
600101E41840C50926104092D9C4D24C32B114934C2CC974134B31C5C4524C34
B134134B31D9C4924D2CC574134B36B124534D00BD27D8400059261248200DF5
5453505535D4534C3D251548504955D454453945D554205175D5532D51F5544B
5415E51448208904D07E821104906433B164134D2CC1041043831504506049B1
16936732C104134C3A099614404E0D66104041C144126B22810516586081E551
DB00FFFFFFFFFFFFFFFFFFFFFFFFFFFF5F551411645F64FFFD7FFF69A55355AC
55455A4C3A11C55A4C36E944944CACC5741340BC3D6614428A05D5DA6A42C914
9A4C31C9041340D13D76144248B186146931E914146B31C1A4935032B116D34C
0085F71852082916546BAB0D25536832C524934C00D9F758520821C51A52A4C5
A45350ACC504934E43C9C45A4C35016410644A21A45850ADAD46944CA1C91493
4C3401B411644B2184146B489116934E41B116134C3A1125136B31DD449BE900
Track 21
FFFFFFFFFFFFFFFFFFFFFFFFFFFFABAAA2816A3BEABFFFEF3FADA60249A69662
82C92590A8422AA9A9403A2AA8A68A0229A9A9402A2AA8A9B2022928A78802C9
A8AA9C0289AAA740828AA9A0B2022929A340CAEAA9AA440248B1C2B402C83291
AA728AA8A2A49A8AAAA09C220AA4AB900A8A2A90B27AAA2A908292AA2890887A
2A29A78E0269AAA74092AAA8A08802892AA48A022929A7A6A24AAAAA86A22AA9
A79C9A4A2480382B8C2C802C1369A8A0A42ACAA8AA98622A2B97E45A1BE0FFFF
FFFFFFFFFFFFFFFFFFFFFFBFAA2A42882096FEFBFFFED3EA29AA440228BCC372
03C83291A842AA28908AC22AA8A1A802C9A9AA9A12AA28A9407ACA29A6B202E9
29A78A026928A69E9AAAA890400A8A29A640CAEAA9AA4022EA299092720A24AA
904A6A2A908E0AAAA9A2404A6A2A9100120931DF00B24C24A28A1A2A29A28A02
E92AA48A720A24AA9E02692AAA9E82CA259082A20A24AA904A6A2A90A07A2A29
A7A80229ABA7AA920A24AA9EA22A28A6404A6A2A90867AAA2DDC01FEFFFFFFFF
FFFFFFFFFFFFFFFFFF575545041507DA7FFFDF7F5A8904906A85A50590653A49
66134B33B114534D00AD57985B00592652505481441552458134155541494515
484F19051255481505D2514135551448593D55154842154515484F3905D25549
39E554524E1DE51248205195155445819494532005E554562201249361780164
99484E55D5945045490592504551755551453905124C2005E5145120C904134C
2E51855451203515D4504825E5545120518554514E9D1630C0FFFFFFFFFFFFFF
FFFFFFFFFFFFFFAAAA28218A1AFAEFFFFB4FABA6A00A4AAAA2881209A0AD101B
0E20CB44BA2A29AA9002892AA48A02C9A9AA9A12AA28A9400ACA29A240CAEAA9
AAA402E9AAA49C722A29A78E9A0AA4A0A42A0A24A28AA2AA28A99A4ACAA9A288
72492480FE428C3880248B8926966C62E926966662C9269A588249A7C092622D
26CF62AA09269860D249309D248B4926808E43AC38802C134925955452492595
400ACAA9A9AE2A4A2A9082628A2990A2AAAAA8E5AC07F83FF0FFFFFFFFFFFFFF
FFFFFFFFFFFFFFFFFFFFFFFFFFFFFFFFFFFFFFFFFFFFFFFFFFFFFFFF5F551501
541849FFFD7FFF6935934D290184DB600A016499485721151455202535154859
3D55955420391554534589B41340C60DF6104092D9C4524C35E9449853240134
DD60120124994D2CDDA493653A5906104184510490652211F51448593D551548
5705E514552025E5D454544955D5505425F594535381845256203D2515484EA5
0492484E912412483A89B4134019115611404111C5DA4C33C974134E3A0915D4
504BB116D34D00A13419EF00FFFFFFFFFFFFFFFFFFFFFFFFFFFFABAAA282AA0B
ECBFFFEF3FAD40822AA9A1969A0AA4A040922A28A7887AAA29909CAAAA29A18A
924A2480E2324C30802C1329ABA7AA022928A98A0289AAA74092AAA8A086420A
24A1B202892AA48A0269AAAA9A0289AAA7A80A8A29909E320AA4A69E92AA2890
860A4A2AA2A6026928A49E9AAA28A75C1209A0D80C630C20CB4412AAA8A182AA
6AAAA2407ACA2890A842AA2890A40A4AAAA2401A0AA9A09C1AAA28909E320AA4
AC9EAA0AA4A366EB1BE0FFFFFFFFFFFFFFFFFFFFFFFFFF7F555514506505FDF7
FFFDA71561160154595044B104934E92D9C4D24C00FD44D845004DC59A6D28E1
94924E8AF586525044A5C41A4CA1C93413405A11E6114053B1D61B4A41119592
4E848924D24E5191A4535424B1261C4A53A504D058848D04906436B174134078
118612408A4545126B223925526892C524934E88C594D34D001946584B004916
934C2CC974134B32D104507284F1049065225D551453433DD554512051F51448
542155545B5503FCFFFFFFFFFFFFFFFFFFFFFFFFFFAFAA8A0C2A4FBCFFFEBFFF
B42A8A2AAA9272EA2890A87A0A24AA900A8A2A909CAAAA29A18A924A2480E233
CC32802C13A928AC821A8A2AA6B26209A4AC9EAA0AA4A0A42A0AA4A392B2AA28
A7400ACA299082628AA9A7AE0ACAA9A18A0269A8A0A422CA259040A20AA9A240
7A4A28A58A1A8A2A909E324A2480623A0C34802C13892AA48A02E9A8A09A2A0A
A4A4A60289AAA7403AAA28AA40A20AA9A240A2EA29AA82620AA4A78C0269A8A0
A49A696F80FFFFFFFFFFFFFFFFFFFFFFFFFFFFAAAA48A0D2CCFAEFFFFB4F2B90
8E0AAAA9A2407ACA2890A8BAEAA996A87AAA25AA8A72CA259040A20AA9A24072
2AA8A68A0269A8A79A2A6A2A908C92EAA9A640A20AA9A2440288A1C28C02C832
91A682AAA8A1920A8A2990882A6AA8A5407ACA2890860A4A2AA2A602A9AAA98A
22CA259040A20AA9A2A42A0AA4A0A42A0A24A79E02C9A8A0862A0AA4A182928A
A8A9406A09A4A79C622A2B910062AA30A800B24C24AA902A0AA4A182928AA8E6
6E06F8FFFFFFFFFFFFFFFFFFFFFFFFFF5F55151D54DF70FFFD7FFF6945D45420
5D9514554825E5144854215514484D653515554549959548004D75986A005926
9253553525545152817455525421F55455548174D45349397514484F59559454
2E8904D05687BD0690653A5906906787D10690652265F554552005255551201D
95945545390552502021959453548114D4542051F51448572115145520518554
5120395555534215251548494DE512482051855452538194D4542039D5DCDA00
Track 22
FFFFFFFFFFFFFFFFFFFFFFFFFFFF5F551609045F4DFFFD7FFF69C51A4CAA0DE5
D46A32D9141A6333C104134C00ED965846010DE5146B4339455A4C3A3136934C
30C10410718969145050AC0D851540DE25C6514092C524134B36B124134E2CCD
C4124C2CCD04134B32DDC4924C34015491621D05649948503115D450458194D5
53554905925045510592484E9124124B2065F55455202115945545814492484D
ED241248543D05D2545015E514512E8124D24E0071A418480111E613D000FFFF
FFFFFFFFFFFFFFFFFFFFFFFFAF2A8B0E020DB2FFFEBFFFB41ACA29D686728AB4
9874520C25A2588B4935A2588B09A694521BEAA9D564C22934C6668209269800
228AB1AE02626C2699608209A0A618F32AA0A1581B0A2B80F462ECAB8014238A
B598600A4DB2986862C926966062692696606229269B588A2926966662092696
62C289A598626229A69A58B2892599004A8C31B0020A0A2BD686D28931996882
09268032632CAC8014238AB598600A8D3199628209268046D3EC6E80FFFFFFFF
FFFFFFFFFFFFFFFFFFFFAF2A8B06028FA2FFFE7BFF692514402B2916524092C9
74134B31C5C4924D2CC904504E8A8914906242B5C65A53A1CD04134C0031A558
49014966134B31B114134D2CCDC4124C2CC9241340862976524096394592482D
B52492532489D4524B22394592482065F55455200D1594532751059250455105
52534F4955144854211594532065F554552759551448473D4555482201B49962
280514D854ACC5E4594D30C1A4936053E984984C35C13452FC00FFFFFFFFFFFF
FFFFFFFFFFFFFFFF5F55162114D55FFFFD7FFF69C59858013126934C35C10490
758C8D15906244B516134CA14916534D2CD9C4924C2CCDC4124C2CC564134B31
C5C4524C34B134134B30B114134E2CC514134B31D5C4D24C2CC1C4524C3601C4
1E636405A41851ACC504536892D9C4924C2CCDC4124C2CC96413401C35565640
8A11B55A4C308526594C34B164134B32B134134B30B124934D2CC514134B31D5
C4D24C2CC1C4924C38B114534C2CCDC4124C2CC91499DA00FFFFFFFFFFFFFFFF
FFFFFFFFFFFF5F55161104D97CFFFD7FFF6905106F8AB114906438E9145854AC
C1E4594C308D26934E92CDC4124C2C45C5524C31E92458543A49861340CA2906
534092C544134B33B104134B3201049F623105649948593D559554209DC45455
432D9515484C25D55452549D04D2504149451448494D05D2575F7D251240082D
26534092C554934E4461C55A4D32E9141456AC05A5535331B1061340122D3653
408CC944134C3001C4D1623405C4984C32D59498FE00FFFFFFFFFFFFFFFFFFFF
FFFFFFFF5F551625149457FFFDF7FED3AA2680AA6A0CAD802C1369A8A0A4220A
A49144224A2490929A0AA4A040126928915C0229ABA7AA022928A98A02892AA9
B24ACAA9A340A2EA2990867AAAA9A24072AAA8A0A40249A4A200FAAAB1B602A2
8A35AA481B0AA0B61A732B20C5A86A8D35A7429B0927980082ACB1B802528CA8
D662822934C962AA89259B589289A599588289A5986E6229A698589A89259858
8AE92680686B4CAE8014236A35D6628229B8EB01FEFFFFFFFFFFFFFFFFFFFFFF
FFFFFFFFFFFFFFFFFFFFFFFFFFFFFFFFFFFFFFFFFFFFAF2A8B0082EEAEFFFEBF
FFB49A8AAAA49E726A2A90AE4A8A2AA4400A0AA493B202C9A8A7A40229ABA2A6
02C924909C02C9A8A7A40AC9A9A74E0249259554524925954402A83BC48C03C8
329D2C13E9A8A79E220A24A6AA1A6A299044728A2480CE43EC38809A624D2698
6002A83DC49003C83180F0432C39802493E92696628A092080126B0E20C962A2
09208612930E20A258834927AA588309209012BB0EA0A7587B0DA5986032CD36
946212696780FFFFFFFFFFFFFFFFFFFFFFFFFFFFAF2A8B0A024CBAFFFEBFFFB4
8209A09716AB2920A258834927C966620926966A62C92696640288ADC56C0AC8
3291B27AAA2A909AAA6A2AAA401AEAA9A68A02E9AAA4A8422A29A7401269A7A0
761209A4AB92A20AA9A7AAA20AA4A39E4ACAA9A3407ACAAAA2A40289AAA740BA
2A29A75C120920BB16DB2920C96CD249B29A00E26C31A002922C269A589A8925
98588A09279D2C13E9AAA298620A24A48A92AA2890AE2A0AA4A39E0249A49D9C
52CA6680FFFFFFFFFFFFFFFFFFFFFFFFFFFFAF2A8B0202CEAAFFFE7BFF699552
4AA4C95413403225C61D404EB1F61A4A4F99661B4A31A59412694F01B45462E6
0124156B28BD86524C3599661B4A31A594126931A5745A4C30C104905789E907
D054ACBD86D253A6D986526930A5445A4C29019457620405A4D854ADAD165368
32DD04934E45B1F61A4A4E95869253A64995524A0009965842012126134E3001
3459620E0554146BAFA1E414692839659A5429A504506A89611490624339D597
D900FFFFFFFFFFFFFFFFFFFFFFFFFFFF5F551619045B6CFFFD7FFF69451240A6
2D56544092D9A493643201F4DA624A05D4544CACE104D06D8B2D15906431D504
50708B3D15106332C504134C0045B7D854014966134B37B134134B30B124134C
006DB718550111C51A51A4C504107B8B5515105158B11613692811555A4C2999
761340FA2D6655408A11D55A4C308536134D3501C410635705441456ACC5441A
4A449516134C299976134016318655404DC5C45A4C3601A413635905D492ED00
Track 23
FFFFFFFFFFFFFFFFFFFFFFFFFFFF7F555D14D07C67FDF7FFFDA7556892C55413
4B36B174134B33B104134B32D9C4524C31B134134B30B124934D0099E5D85D01
592652564F55251548543D4555504C8194D454201D2555514151559454205185
54504E814415524581E454554D095594542089E494482C890490608EE1159065
2205E51448415545D5534D054555524381C4D453534D0592484E9104D0628EE5
15106235DD0413409339C6574092C5141340DA39D65740968994155EC603FCFF
FFFFFFFFFFFFFFFFFFFFFFFFFF557591418301F6DFFFF79F5690C12490652839
555A502995461540B041A693404DB1D654694201141C64440924994D2CDDA493
6244B516134CA15906D07E90612590652265F554552039F5D455202115945545
814492484D890452524E8134545053210512554F812454515481949453205185
5451203955145654817454504D15159248002514D9570229D6546BABC1149A4D
31C104904791812550604DB116936732C104134C3A09A613625E110DF0FFFFFF
FFFFFFFFFFFFFFFFFFFFFF57D545020D47D07FFFDF7F5A3D5595542051F51455
4131055252538124125522B9841253550DB55456203195545349510552525381
24525022A5D412514F8194D55355817455504E510512554F8134D4534E519594
53551525D24E0089E7985F011116154900C9E798610129161549AC89949548A1
CD34534E0029F49866012946556B4E9516546835D144934E8A51B59A53A1D544
134D00E9F4987A012946546B31C1149A6431D1C4924D2C9D3736C0FFFFFFFFFF
FFFFFFFFFFFFFFFFFF5F55171D345968FFFD7FFF6965D34C3001545564620964
9948573D551553448194D5535581C454524B150512554F810415534165051255
48054515482739551456549D04D2514135551448223945D24E3A111615490095
15195B0229161549AC89E49448A1D934134C00B915995B022126134C30012459
64760924594C32E96499484425451448593D5515484805655551201955955320
89E414493BE94458542401245A648009A4585424B16613FC00FFFFFFFFFFFFFF
FFFFFFFFFFFFFF7F555D34D07425FDF7FFFDA7D54D2CCDC4124C2CC584134B31
C5C4D24C2CC1C4924C30B114534C2CCDC4124C2CC584134B31D504505D8FBD17
906244ADC65A4C308526594C34B164134B37B134134B30B124134D2CC514134B
33B104134B32D9C4524C31B134134B30B124134E2CC514134B33B104134B32D1
C4524C350114DB63F405649948593D5515485725E554482DB54415524581E454
554D09559454205D15D4542089E494482C819455548303FCFFFFFFFFFFFFFFFF
FFFFFFFFFFFF557511426239F5DF7FEF3FAD44CA4AA4D06CBA092680AC8BEC31
81248B49269662A289A5986E6269A698589A89A598726229269974B24CA4AB8A
628AA9965A6AA9A5965A6A69AAA4A802E929A7404A8A2A9044728A2480BE8B4C
328110CB29A79C001A4932CF04922C2699588A09269662C289A5996262692696
628A89A59864D2C93291AE2A8A29A64012C929924402892AA482A20A24A5AA9A
8A2A90A84A6AA8A5982A6A2A909ACA0AA4A11EEA1BE0FFFFFFFFFFFFFFFFFFFF
FFFFFFFFAFAA8B081A4DB8FFFE7BFF69F554555281745455454D351548543D45
55504C8174555053812412550079F7987F015926D2554825351452205D15D454
205D9514554825E51448593D5595542031955453495105D25041494514484F19
059248410184DE630809D4146B4D91261440F13DC6914088D584134C00AD0419
48022946D46AACC504536892C554134B33B104134B32CDC4524C31B114134D2C
CDC4124C2CC944134B31C5C4D24C2CC1E49CD400FFFFFFFFFFFFFFFFFFFFFFFF
FFFFBFAA2E4A48AEB7FEFBEFFDA75552520D555552544D2512402F4976DE4092
CDC4924D34B10413404E4986DE408125C55A4C9EC954134C30E92458523A4916
934C2CD9C4924C2CC554134B31D104105792C937106522355594535589A45362
0089251974073906105D924577505024A114534AAC89249348A4054513490029
269974070545124A32A5C45A50329144DA545591445A503291041066924D7750
5024A134534AAC05551349009926197FE603FCFFFFFFFFFFFFFFFFFFFFFFFFFF
FFFFFFFFFFFFFFFFFFFFFFFFFFFFFFFFFFFF57D545008D67D47FFFDF7F5A8526
594C35B164134B32B134134B30B124134D2CC514134B33B104134B32D104D078
8DCD1590652265F55455528144D5535405C51448494D0592485489E412482831
55D5504B6505125349359514552025351548220525524A22010491637405A418
51ADC504536892C554134B36B174134B33B104134B32C1C4524C31B134134B30
B124534C2CC514134B33B104134B32C104104D8ED515906244ADC65A4C3005E6
3AC0FFFFFFFFFFFFFFFFFFFFFFFFFFFF5F55171534DB78FFFD7FFF69C5924C36
B114534C2CC554134B33B104134B32D104504F908524906244B516134CA14936
134B30B124534C0019059948024966134B310164176426096499484F21059248
4E91241248593D551548423155D4552025455548205185545120395555534215
2515485705351548223925124B220194196427096499484F5545D55449115514
48593D5595542005C514534F5D1594534315059250598124D24E0099C6D0F900
Track 24
FFFFFFFFFFFFFFFFFFFFFFFFFFFFAF2A8C12122BAAFFFEBFFFB4922925805ABA
CC2484822209259B52622D2892509229258080BAEC2484822209A59B52622DA8
9948224DA49860120920A32E4309A1C60062EA329A10720C20AB2ECB0921C464
8AC92698003AEB329F10926C2698588AC9269664CA89A5986C02A8AECB864228
30A5588BC9B39A6E1AED268008BB0C2984024B8AB5A662F2ACA99848B309A0C7
2E930A21C96662492996920208B3CBB842C8B2A06A2209A0CF2E634D7A00F8FF
FFFFFFFFFFFFFFFFFFFFFFFFFFFFFFFFFFFFFFFFFFFFFFFFFFFFFFFFFFFFFFFF
FF5F551801341F5EFFFD7FFF6945DD41419184124D29B116544D2401449B64D5
1D14144928D594126B41D5441240C44966DD41419184924D29B116144928C994
1240D64976DD41419184D24D29B116144D249126924C2201C49D64D81DD41840
E249A6DD418E01449F64DB1D14144928C594126B22CD24126941D14412400A4D
C6DD41419184924C29B116944C2491365555249116944C240184D164DD1D1414
4928CD94126B41D5441240284D06D7EB00FFFFFFFFFFFFFFFFFFFFFFFFFFFFAF
2A8C0A1AADBBFFFEC37F5A1184505024A124534AAC05151349A44D551549A405
151349A44D551549A4051513490011555941080545124A33A5C45A5035910490
58951984505024A144534AAC05151349A44D551549A44D551549A44D551549A4
0515134900C155D941080545124A35A5C45A503591041060952184505024A164
534AAC0545124A32A5049064952584505024A174534AAC05451349A489749348
00615699420835069067951DA53EC0FFFFFFFFFFFFFFFFFFFFFFFFFFFFAB0AA3
80C6CBEABFFFEF3FADBC3B28289250A22925D682220925995202C8A6C9BE3B28
289250AA2925D682AA8924808C9A0CBC83822209259B52622D28925092292580
B09A2CBC83822209A59B52622D289A48224DA4994402C8ABC9C43BA83180C89A
8CBC831C03C8AEC9CA3B282892508A2925D644A24924D282A2892480289BCCBC
83822209259952622DA89848226DAAAA48222DA89848226DAAAA48222DA89848
0248B4C9CE3B282892361B1CE0FFFFFFFFFFFFFFFFFFFFFFFFFFFF5585914193
F9F6DFFFF79F560C21E41840B055D61042419184524C29B126124E229116144D
2401E45C650E2114144928C994126B41C5441269535545126941C54412695355
45126941C5441240E455F61042419184D24C29B116944C249136555524911694
4C2401445F65102114144928D194126B419184924C2901449065112114144928
D594126B419184D24C2901449165122114144928D994126B419184924C290164
926513211414493A050FF0FFFFFFFFFFFFFFFFFFFFFFFFFFFFAAC248A0E974FA
EFFFFB4F2B94664A89B5A06A220920D82643EFA0A0484289A694580BAA269200
F26DB2F40E0A8A24946A4A89B5A06A220920E72653EFA0A04842C9A694580B8A
2494644A0920F0265BEFA0A04842E9A694580B8A2692481389269100326F32F6
0E6A0C20F62673EF20C700F26FB2F70E0A8A2494624A8935916A1289B4A06822
09208E2883EFA0A0484249A694580B2A2692489BAA2A92480B2A2692489BAA2A
92480B2AA6DBC806F8FFFFFFFFFFFFFFFFFFFFFFFFFF7F556174D0609FFDF7FF
FDA7154A37A5C45A503491449A48398904104B965184506300C9649945083906
1051965D84505024A114534AAC89949348A4054513490089651946080545124A
32A5C45A50319144DA54559144DA54559144DA545591445A50319104105C9665
84505024A134534AAC055513490001669946080545124A34A5C45A5024A12453
4A003966D946080545124A35A5C45A503591049067967184505024A164534AAC
054592747503FCFFFFFFFFFFFFFFFFFFFFFFFFFFBFAA301A68B88DFEFBFFFED3
8A248054A22CBE83822209A59952622DA89A48020828CAE43B28289250A22925
D682928924D2A6AA8A24D282928924809CA26CBE83822209A59A52622DA89A48
02C82BCAE83B28289250B22925D682220925995202082ECAEA3B28289250BA29
25D682A28924D244AA492480ECA2CCBE831A03882FCAF03BC831801CA32CBF83
822209A59852624D249B44222D289A48028835CAF43B28289250922925D6828A
89BFCC01FEFFFFFFFFFFFFFFFFFFFFFFFFFF5F55182124175CFFFD7FFF698592
4C2901049B651D2114144928DD94126B41D144126922E5241240B659E611428D
01C49B652021E41840CF59161242419184524C29B126524C3089445A50339104
507B968984505024A124534AAC05151349A44D551549A405151349A44D551549
A40515134900F567D948080545124A33A5C45A5024A124534A00357419490805
45124A34A5C45A5024A124534A0075745949080545124A35A5C45A5024A17494
E100FFFFFFFFFFFFFFFFFFFFFFFFFFFFAF2A8C089A8DBFFFFE7BFF6945126953
5545126941C5441269535545126941C5441240BA51B6DF41419184D24C29B116
544D2401A41C65FC1D14144928D194126B419184924C2901841D65FD1D141449
28D594126B41D5441240E851E6DF41419184924D29B116144928C9941240FA51
F6DF41419184D24D29B116144D249126924D22010450650021D4184006552610
428E01845165032114144928C594126B22DD24126941D14412403655061DC100
Track 25
FFFFFFFFFFFFFFFFFFFFFFFFFFFFBFAA324228A8A0FEFBEF3FADCA2BAFBCF2CA
2BAFBCF2CA2BAFBCF2CA2BAFBCF2CA2BAFBCF2CA2BAFBCF2CA2BAFBCF2CA2BAF
BCF2CA2BAFBCF2CA2BAFBCF2CA2BAFBCF2CA2BAFBCF2CA2BAFBCF2CA2BAFBCF2
CA2BAFBCF2CA2BAFBCF2CA2BAFBCF2CA2BAFBCF2CA2BAFBCF2CA2BAFBCF2CA2B
AFBCF2CA2BAFBCF2CA2BAFBCF2CA2BAFBCF2CA2BAFBCF2CA2BAFBCF2CA2BAFBC
F2CA2BAFBCF2CA2BAFBCF2CA2BAFBCF2CA2BAFBCF2CA2BAFBCF214BAFDFFFFFF
FFFFFFFFFFFFFFFFFFFFFF559511418035F7DF7FEF3FAD589A8925985892C926
96628A89A5995882892599706229A69800DA2EB3DE16926C2696606249269B58
8A8926966C62692696668A4927CB449A0AA9AA8C328AA9A49C3A0A24A78ABA0A
24A28A1A6A299100622F33E116122AA8A196626DA69B4A132AA8A1960208BFCC
985B48B29958B289269660020821CDAC5B2830AB588BC9B39860820926986002
8823CDC05B68A898587B0DA598489BC926D36C43A9A694EEF21BE0FFFFFFFFFF
FFFFFFFFFFFFFFFFFFAB2AA384A202EBBFFFFED3AABCF2CA2BAFBCF2CA2BAFBC
F2CA2BAFBCF2CA2BAFBCF2CA2BAFBCF2CA2BAFBCF2CA2BAFBCF2CA2BAFBCF2CA
2BAFBCF2CA2BAFBCF2CA2BAFBCF2CA2BAFBCF2CA2BAFBCF2CA2BAFBCF2CA2BAF
BCF2CA2BAFBCF2CA2BAFBCF2CA2BAFBCF2CA2BAFBCF2CA2BAFBCF2CA2BAFBCF2
CA2BAFBCF2CA2BAFBCF2CA2BAFBCF2CA2BAFBCF2CA2BAFBCF2CA2BAFBCF2CA2B
AFBCF2CA2BAFBCF2CA2BAFBCF2CA2BAFBCF2CA2B4FA1DBFF7FE0FFFFFFFFFFFF
FFFFFFFFFFFFFFFFFFFFFFFFFFFFFFFFFFFFFFFFFFFFFFFFFFFFFFFFAACA0820
E092FAEFFFFB4F2BB310122C29804CBB6C2D8404530AA0DC2E830B21C9668289
2599666249A69C58122AA8A19602E8B8CBEA422830A5588BC9B39A6E1AED2680
ACBB4C2F84024B8AB5A662F2ACA99848B309A0F02E230C21C966624929969202
48BDCB1C43C8B2A0602209A0F82EC30C21C1920208BFCB3A434830A500F2EF32
D1106A0C208230530E21C700AA0833EA10926C2698588AC9269664CA89A5986C
028824CCBC432830A32807F8FFFFFFFFFFFFFFFFFFFFFFFFFFFFAACAA820C8D8
FBEFFFFB4FAB94007A4933F516524C28A2501A2AA694588B29B49960CA092680
